:020000040800F2
:10000000808400209D010008A71F0008AF1E000883
:10001000A51F0008C9040008CD3600080000000034
:10002000000000000000000000000000752400082F
:10003000CB040008000000002321000881240008F0
:10004000B7010008B7010008B7010008B7010008B0
:10005000B7010008B7010008B7010008B7010008A0
:10006000B7010008B7010008B7010008B701000890
:10007000B7010008B7010008B7010008B701000880
:10008000B7010008B7010008B7010008B701000870
:10009000B7010008B7010008B7010008B701000860
:1000A000B7010008B7010008B7010008B701000850
:1000B000B7010008B7010008B7010008B701000840
:1000C000B7010008B7010008B7010008B701000830
:1000D000B70100088D27000899270008A527000808
:1000E000B7010008B7010008B7010008B701000810
:1000F000B7010008B7010008B7010008B701000800
:10010000B7010008B7010008B7010008B7010008EF
:10011000B7010008B7010008B7010008B7010008DF
:10012000B7010008B7010008B7010008B7010008CF
:10013000B7010008B7010008B7010008B7010008BF
:10014000B7010008B7010008B7010008A91F00089F
:10015000B7010008B7010008B7010008B70100089F
:10016000B7010008B7010008B7010008B70100088F
:10017000B7010008B7010008B7010008000000003F
:10018000B7010008B7010008DFF80CD000F08AF9C9
:100190000048004705710008808400200648804719
:1001A00006480047FEE7FEE7FEE7FEE7FEE7FEE75C
:1001B000FEE7FEE7FEE7FEE71925000889010008D3
:1001C0002DE9F05F0546002092469B46884606468C
:1001D000814640241BE0284641464746224600F01F
:1001E000F4F853465A46C01A914110D311461846A6
:1001F000224600F0DBF82D1A67EB01084F46224635
:100200000120002100F0D2F817EB00094E41201E1A
:10021000A4F10104DFDC484631462A464346BDE8E6
:10022000F09F40EA01039B0703D009E008C9121FB1
:1002300008C0042AFAD203E011F8013B00F8013BA0
:10024000521EF9D27047D2B201E000F8012B491ECC
:10025000FBD270470022F6E710B513460A46044663
:100260001946FFF7F0FF204610BD034611F8012B99
:1002700000F8012B002AF9D1184670472DE9FE4FEE
:1002800081EA030404F0004421F0004100944FF09F
:10029000000B23F0004350EA01045ED052EA03044D
:1002A0005BD0C3F30A54C1F30A552C44A4F2F334CF
:1002B0000194A0FB0254C1F3130141F48011C3F374
:1002C000130343F4801301FB024400FB034E840A32
:1002D000970A44EA815447EA8357A4FB07680295CA
:1002E0008D0A05FB07854FEA932C04FB0C54270568
:1002F000029D4FEA065847EA1637B5EB08056EEB44
:10030000070C870E920E47EA811742EA8312A7FB79
:100310000201B6EB0B0164EB00042B0D43EA0C3336
:100320005E1844EB1C50DA465146E7FB0201C5F368
:1003300013044FEA0B3343EA14534FEA0432019C8F
:1003400043EA0603A4F10C040294009CCDE900B436
:1003500000F05AF803B0BDE8F08F00200146F9E73D
:100360000EB540F2334102910021CDE900110A4659
:100370000B4600F049F803B000BDC1F30A5210B5B6
:10038000C1F3130140F2FF3341F480119A4201DAC4
:10039000002010BD40F233439A42A2F2334203DC04
:1003A000524200F012F810BD904010BD202A04DB2C
:1003B000203A00FA02F1002070479140C2F1200378
:1003C00020FA03F3194390407047202A04DB203AB7
:1003D00021FA02F00021704721FA02F3D040C2F165
:1003E0002002914008431946704710B5141E73F15E
:1003F000000408DA401C41F1000192185B411A43E5
:1004000001D120F0010010BD2DE9F04D92469B4630
:1004100011B1B1FA81F202E0B0FA80F220329046D6
:10042000FFF7C4FF04460F4640EA0A0041EA0B0109
:1004300053465A46084313D0114653EA010019D0D7
:10044000C8F140025046FFF7C0FF05460E46504631
:1004500059464246FFF7AAFF084305D0012004E0B1
:1004600020463946BDE8F08D0020054346EAE07697
:100470002C4337430A986305E40AA0EB08000022E6
:10048000FD0A44EA47540A3002D500200146E9E754
:10049000010510196941DDE9084500196941BDE808
:1004A000F04DA2E7064C074D06E0E06840F001037E
:1004B00094E8070098471034AC42F6D3FFF768FE83
:1004C00074B3000894B30008FEE7704772B6FEE705
:1004D00070B5B3F5804F05D06FF0704140F8221031
:1004E000002070BD50F82240084B8E891C40D1E995
:1004F000003543EA05138D6889692D0245EA0645F2
:100500002B430B43234340F82230E9E70000F0CFB0
:10051000F0B50C6850F82430114A1340D1E9012598
:10052000D1E903672A433E4332434E6932438E6921
:100530003243CE6932430E6A32434E6A32438E6A88
:100540003243CE6A3243CE6B096B32430A431A43BD
:10055000082D01D142F0400240F824200020F0BDD7
:100560008000F0FF30B500EB820250688D8900F00A
:100570004043D1E9000440EA04108C68240244EAB4
:10058000054420430C8A074D05EB045420430C7DA1
:100590006D0105EB046489692043084318435060EA
:1005A000002030BD0000F0FF2DE9F0410446876DCA
:1005B00000F054F9064694F835000025022806D0CC
:1005C0008020606584F834500120BDE8F081206807
:1005D000016821F0160101602068416921F0800165
:1005E0004161206C08B9A06C20B12068016821F03D
:1005F000080101602068016821F0010101600CE040
:1006000000F02CF9801B052807D920206065032005
:1006100084F8350084F83450D7E720680068C007B4
:10062000EED194F85C103F208840B860012084F837
:10063000350084F834500020C7E790F835100229BF
:1006400003D08021416501207047052180F83510D5
:100650000068016821F0010101600020704700007E
:100660002DE9F84FDFF8BCA1002201250AF1040BA7
:1006700003264FF00F090BF1040E00BF0B6805FABB
:1006800002F42340A34270D10F7907F00307012F32
:1006900001D0022F16D187684FEA420806FA08FCFB
:1006A00027EA0C07D1F80CC00CFA08FC4CEA070C3E
:1006B000C0F808C04768A7430C79C4F300149440FD
:1006C0003C4344600C79E443A4070AD0C4684FEA71
:1006D000420C06FA0CF7BC438F6807FA0CF7274365
:1006E000C7600C7904F00304022C12D1D40800EB8B
:1006F000840CDCF820405707FF0E09FA07F824EABB
:100700000804D1F8108008FA07F848EA0408CCF881
:10071000208004684FEA420C06FA0CF7BC430F79BC
:1007200007F0030707FA0CF7274307604C6814F437
:10073000403F70D03C4C276847F4804727602468CE
:1007400022F0030704F480440094384C07EB040CB7
:10075000DCF8084897074FEA177809FA08F7BC430E
:10076000334FB84202D1002724E054E0314FB84261
:1007700001D101271EE0304FB84201D1022719E014
:100780002E4FB84201D1032714E02D4FB84201D1BA
:1007900004270FE02B4FB84201D105270AE02A4F6A
:1007A000B84201D1062705E0284FB84201D10727FA
:1007B00000E0082707FA08F72743CCF80878DAF8AA
:1007C00000405746D1F804C09C435FEACC3C00D5BA
:1007D0001C433C60DBF800405F46D1F804C09C43FA
:1007E0005FEA8C3C00D51C433C60DEF80040774655
:1007F000D1F804C09C435FEACC2C00D51C433C607C
:10080000084F0C373C68D1F804C09C435FEA8C2C3D
:1008100000D51C433C60521C102AFFF42FAFBDE8EA
:10082000F88F0000003C0140443802400030014095
:10083000000002400004024000080240000C024098
:10084000001002400014024000180240001C024048
:100850000AB1816170470904FBE700000148806824
:10086000704700005C000020024881680278114453
:10087000816070475C0000200B4810B5016841F4AE
:1008800000710160016841F480610160016841F418
:1008900080710160032000F06FF80F2000F006F86F
:1008A00000F024F8002010BD003C024070B50D4D52
:1008B00004464FF47A712878B1FBF0F00A490968D0
:1008C000B1FBF0F001F07EF848B9102C07D20022FD
:1008D0002146501E00F030F800206C6070BD0120F1
:1008E00070BD00005C000020680000200A4808B5C8
:1008F000016841F480410160006800F4804000908C
:100900000548001F016841F080510160006800F057
:100910008050009008BD000044380240002809DBE8
:1009200000F01F02012191404009800000F1E02009
:10093000C0F8001170470000F0B40E4B1B680C4665
:10094000C3F30223C3F10705042D00D90425191DA3
:10095000072901D2002300E0DB1E012606FA05F17B
:10096000491E214099409E40761E16403143F0BCFE
:1009700003F04EB80CED00E0064900F007020868ED
:100980004FF6FF03184040EA0220034A1043086074
:10099000704700000CED00E00000FA057047D0F849
:1009A000040402F071B8C1EBC10200EB8202D0F87E
:1009B0000404926C01F0DEBFC1EBC10200EB8202C5
:1009C000D0F80404D2F8082202F028B8D0F80404C1
:1009D00002F05CB870B5044601F00F006268904206
:1009E00001D9012070BD0B0601F00F01C1EBC1015F
:1009F00004EB81014FF001024FF0000503D581F8AF
:100A00003D203C3103E081F8FD5101F5FE718D7010
:100A1000087094F8BC03012808D084F8BC2320682F
:100A200002F0FCFB84F8BC53002070BD022070BDB6
:100A30002DE9F04104460F0601F00F00C0EBC001A4
:100A400004EB81014FF001064FF0000503D581F85A
:100A50003D603C3103E081F8FD5101F5FE71087005
:100A60008A60CB704A7802B1C880022B00D10D7128
:100A700094F8BC03012809D084F8BC63206802F014
:100A8000C7FA284684F8BC53BDE8F0810220FBE792
:100A900070B50C4601F00F05C5EBC50100EB8101F7
:100AA000C1F81032C1F808220023C1F8143281F8CD
:100AB000FD3181F8FC51036901F5FE71012B00D174
:100AC0000A612207027C006803D002F0FFFB0020CD
:100AD00070BD02F0EBFAFAE770B504460D4601F07E
:100AE0000F006168884201D9012070BD29064FF0CE
:100AF00000064FF0010207D5C0EBC00104EB8101F5
:100B000081F83D203C3107E0C5EBC50104EB8101D4
:100B100081F8FD6101F5FE718A70087094F8BC03DC
:100B2000012807D084F8BC23206802F0A3FB280723
:100B300002D007E0022070BD217C04F571722068AC
:100B400002F040FB84F8BC63002070BD70B50C4619
:100B500001F00F05C5EBC50100EB81010B658A644F
:100B600000234B65012381F83D3001F83C5F0369A8
:100B7000012B00D10A612207027C006803D002F039
:100B8000A5FB002070BD02F091FAFAE72DE9FC5FA9
:100B900005680446284602F0B0FC00287ED1206893
:100BA00002F0D7FC002879D0206802F0D2FC800740
:100BB00004D52168486900F002004861206802F00D
:100BC000C8FCC10604F57170009034D520688169B5
:100BD00021F0100181612F6A07F00F00C0EBC00007
:100BE00004EB8006C7F3434006F5FE76022802D0E8
:100BF000062811D01AE047F6F070074216D0C7F366
:100C00000A1217462846F16802F0A7FCF06838443B
:100C1000F060B069384408E008222846009902F0E4
:100C20009CFCB069C7F30A110844B061206881696F
:100C300041F010018161206802F08BFC00034FF04D
:100C4000010A4FF0080B5BD50026206802F060FC1B
:100C50000746DFF8689351E0F8074DD0F1B22068FD
:100C600002F06FFC8046C00707D005EB4611C1F8C3
:100C700008AB3146204601F09DF95FEA087022D5A5
:100C800005EB4611C1F808BB2068016C00EB46106B
:100C90000191D0F8082B494507D900E08BE11104F8
:100CA00003D54FF40041C0F8081B204600F0C2F9FC
:100CB0000198484507D92069012804D120680121FD
:100CC000009A02F07FFA5FEAC86004D505EB46118E
:100CD0001020C1F8080B5FEA886004D505EB4611C7
:100CE0002020C1F8080B5FEA884005D505EB4610C7
:100CF0004FF40051C0F8081B7F08761C002FABD1C1
:100D0000206802F026FC40034FF000095CD5206803
:100D100002F0F7FB0746002654E0F80750D0F1B286
:100D2000206802F0FCFB8046C00723D006F00F02CB
:100D30000AFA02F0D5F834288243C5F8342805EBC6
:100D40004610C0F808A9206901280FD1C6EBC600DB
:100D500004EB8000D0E911211144816436B9206D83
:100D600020B920680121009A02F02CFAF1B2204645
:100D7000FFF719FE5FEA087003D505EB4611C1F8CD
:100D800008B95FEAC86004D505EB46111020C1F828
:100D900008095FEA486004D505EB46114020C1F818
:100DA00008095FEA887004D505EB46110220C1F8F6
:100DB00008095FEA086003D53146204601F060F972
:100DC0007F08761C002FA8D1206802F0C2FB002803
:100DD00011DAD5F8040820F00100C5F8040894F8E9
:100DE000F403012829D0204600F008F92068416961
:100DF00001F000414161206802F0ABFB00050BD51A
:100E0000D5F80808C00702D0204600F01BF920687A
:100E1000416901F400614161206802F09AFBC0045D
:100E200068D5D5F8040820F00100C5F804081021A1
:100E3000206802F03FFB002127E084F8F4930021B2
:100E40002046FFF7ABFDD1E705EB41104FF67F32AF
:100E5000C0F80829D0F8003923F40013C0F800398D
:100E6000D0F8003943F00063C0F80039C0F8082B0F
:100E7000D0F8002B22F40012C0F8002BD0F8002B81
:100E800042F00062C0F8002B491C60688842DBD841
:100E9000D5F81C0840F00110C5F81C08206B60B1A3
:100EA000D5F8840840F00B00C5F88408D5F844084C
:100EB00040F00B00C5F844080CE0D5F8141842F2D5
:100EC0002B000143C5F81418D5F8100840F00B00AA
:100ED000C5F81008D5F8000820F4FE60C5F8000831
:100EE000217C2068009A02F06DF92068416901F4C4
:100EF00080514161206802F02CFB800415D52068E8
:100F000002F0C6F8206802F0EBFAE06000F04CF95D
:100F10000146227B206802F051FB204600F058F881
:100F20002068416901F400514161206802F011FB21
:100F3000000707D5204600F065F82068416901F0F8
:100F400008014161206802F004FBC00208D50021BD
:100F5000204600F035F82068416901F480114161B4
:100F6000206802F0F6FA800208D50021204600F041
:100F70002BF82068416901F400114161206802F0FA
:100F8000E8FA400007D52046FFF709FD20684169CF
:100F900001F080414161206802F0DBFA40070AD588
:100FA00020684568680702D52046FFF70FFD2068D6
:100FB000416829434160BDE8FC9F00000A30544F5E
:100FC000D0F8040401F07EBDD0F8040401F08ABD1D
:100FD00070B50446C068012570B1022801D0FFF742
:100FE00075FA2946D4F8040401F0E8FDD4F80404A5
:100FF000BDE8704001F09BBD0025F2E7D0F8040485
:1010000001F0C2BDD0F8040401F0C8BD10B504461B
:1010100090F8BC0301280BD0012084F8BC0384F8AD
:101020003810206802F0B8FA002084F8BC0310BD24
:10103000022010BDD0F8042400F57171104601F0B3
:10104000C9BD000010B50446D0F8040401F0FBFD52
:101050002068D0F8001E41F00101C0F8001E206A8F
:10106000002804D00248016841F00601016010BD6B
:1010700010ED00E02DE9F0470E46050065D0DFF8E1
:101080001481D8F80000F7B200F00700B04207D290
:1010900088F80070D8F8000000F00700B04254D182
:1010A00028683D4C810712D5400703D5206840F4DD
:1010B000E05020602878000703D5206840F46040A5
:1010C00020602068A96820F0F0000843206028789C
:1010D000C0072DD0304968680839012812D002288D
:1010E00013D0032811D00968890700292DDA216857
:1010F00021F0030101432160FFF7B0FB814641F27B
:10110000883A0EE009688903EFE709688901ECE78E
:10111000FFF7A4FBA0EB0901514502D90320BDE86C
:10112000F0872068696800F00C00B0EB810FEFD108
:10113000D8F80010404601F00701B14207D9077006
:10114000006800F00700B04201D00120E7E72878EE
:10115000400705D52068E96820F4E0500843206086
:101160002878000706D52068296920F4604040EA05
:10117000C100206000F03EF82168084AC1F3031165
:10118000515CC8400649086006480068FFF78EFBBE
:101190000020C4E7003C02400838024028B30008A1
:1011A00068000020600000200148006870470000CF
:1011B000680000200448054900680968044AC1F332
:1011C0008221515CC8407047680000200838024006
:1011D00038B300080448054900680968044AC1F3A7
:1011E0004231515CC8407047680000200838024016
:1011F00038B30008154810B5006810F00C02144808
:1012000013D04110042A0FD0082A0ED10F4C241FEE
:101210002268236802F03F025B0207D52068C0F312
:101220008810A0FB010106E0084610BD2168C1F34B
:101230008811A1FB00010023FEF7C2FF2168C1F362
:101240000141491C4900B0FBF1F010BD08380240D3
:101250000024F4002DE9F84F04006ED02078DFF868
:101260004C93C007A9F104054AD009F104000168B4
:10127000C1F38101012908D00068C0F38100022870
:101280000AD1D9F80000400206D52868800337D576
:1012900060680028E1D033E06068B0F5803F10D08E
:1012A000B0F5A02F286810D020F48030286028687E
:1012B00020F4802028606068A8B1FFF7CFFA0646C6
:1012C0000DE0286840F48030F4E740F48020286086
:1012D000F7E700BFFFF7C2FA801B642873D82868BD
:1012E0008003F7D50CE0FFF7B9FA064605E000BF2A
:1012F000FFF7B4FA801B6428F0D828688003F7D47D
:101300002078DFF8AC8280074FF0000A3ED5A7486E
:10131000001D016811F00C0F08D00068C0F38100B7
:1013200002280BD1D9F80000400207D428688007B2
:1013300016D5E068012800D112E033E1E068B8B1C9
:101340000120C8F80000FFF789FA064605E000BF53
:10135000FFF784FA801B0228C0D828688007F7D5D9
:101360002868216920F0F80040EAC10028600DE0FB
:10137000C8F800A0FFF772FA064604E0FFF76EFA1D
:10138000801B02281FD828688007F7D42078000720
:1013900022D5864F87486169703771B1012101609C
:1013A000FFF75CFA064604E0FFF758FA801B0228B4
:1013B00009D838688007F7D50EE0C0F800A0FFF71D
:1013C0004DFA064605E082E0FFF748FA801B022846
:1013D0007DD838688007F7D42078400768D5DFF8D3
:1013E000CCB100270BF13C0BDBF80000C0000BD4A4
:1013F000DBF8001041F08051CBF80010DBF8000062
:10140000012700F0805000906B4E3068C00510D46A
:10141000306840F480703060FFF720FA009005E0FB
:10142000FFF71CFA0099401A022850D83068C0050E
:10143000F6D55E4EA0686C3601280FD005283068BE
:1014400010D020F001003060306820F004003060DF
:10145000A068B8B1FFF702FA00900FE0306840F0E2
:101460000100F4E740F004003060F7E7FFF7F6F919
:101470000099411A41F28830814266D8306880076D
:10148000F4D50EE0FFF7EAF9009007E0FFF7E6F980
:101490000099411A41F28830814256D8306880075D
:1014A000F4D42FB1DBF8001021F08051CBF80010FC
:1014B000A069C8B33D49091D0968C1F3810102292A
:1014C0004AD00228504607D0C8F8600000E03CE04F
:1014D000FFF7C4F904463BE04746C8F86000FFF751
:1014E000BDF9064605E000BFFFF7B8F9801B0228EA
:1014F0002BD828688001F7D4D4E907010843A16AF2
:101500002E4A490802EB0141626A41EA821108430E
:1015100094F82C1040EA0161C9F8001001203866E7
:10152000FFF79CF9044606E03EE000BFFFF796F99E
:10153000001B022809D828688001F7D534E000BFD5
:10154000FFF78CF9001B022802D90320BDE8F88FB1
:1015500028688001F4D427E00128F7D0D9F80000EA
:10156000E26900F4800191421CD1226A00F03F013F
:10157000914217D147F6C071626A0140B1EB821FF8
:1015800010D1A26A4FF0FF3300F4403103EB520256
:10159000B1EB024F06D194F82C1000F07060B0EB64
:1015A000016F01D00120D1E70020CFE704380240CD
:1015B00000004742800E4742007000400000FFFFDD
:1015C00070B5040009D0606A002540B125616561ED
:1015D000A56294F8510040B10CE0012070BD606834
:1015E000B0F5827FF4D0E561F2E784F850502046F0
:1015F00000F044F8022084F851002068016821F0CE
:1016000040010160A088218900F4827001F4044146
:101610000843A18901F400610843217C01F0020123
:101620000843217D01F001010843218B01F4007181
:101630000843217F01F03801084394F8201001F09D
:1016400080010843218D01F400510843216808609E
:10165000A069042101EA104094F8241001F010015F
:101660000843216848602068C16921F40061C161B4
:101670006565012084F85100002070BD10B5006838
:101680001C4986B0884232D11B48016841F00201F2
:101690000160016801F002010591016841F0020159
:1016A0000160016801F002010591016841F0020149
:1016B00001600068012100F0020005900820009000
:1016C0000220CDE90101039005200C4C04906946ED
:1016D0002046FEF7C5FF1020009069462046FEF721
:1016E000BFFF2020009069462046FEF7B9FF06B0F4
:1016F00010BD0000003001403038024000040240BC
:101700002DE9F84F044690F8500000270A9E1D4628
:1017100092468B464FF0010901280ED0012084F833
:101720005000FFF79BF8804694F85100616801284B
:101730000CD0B1F5827F07D102E00220BDE8F88F1E
:10174000A16809B9042801D00227C2E0BBF1000F4B
:1017500027D0BAF1000F24D01DB394F8510004280B
:1017600002D0052084F8510000206065C4F838A03C
:10177000E587A587C4F830B0E586A5862064606457
:1017800020680168490603D4016841F04001016006
:10179000E068B0F5006F606805D0E8B3012D46D071
:1017A0007FE0012795E008B1012D39D1206B216838
:1017B0000088C860206B801C2063E08E401EE0869D
:1017C0002EE02068816889070FD5E18E69B1B9F1F3
:1017D000010F0AD1216B0988C160206B801C206336
:1017E000E08E401EE0864FF0000920688168C9073E
:1017F0000CD0E18F51B1C068A16B0880A06B801C38
:10180000A063E08F401EE0874FF00109FFF726F844
:10181000A0EB0800B04200E009E001D3701C50D1F9
:10182000E08E0028CDD1E08F0028CAD13FE0206BA8
:10183000216800780873206B401C2063E08E401EF6
:10184000E0862EE02068816889070FD5E18E69B1B6
:10185000B9F1010F0AD1216B09780173206B401C8B
:101860002063E08E401EE0864FF00009206881680A
:10187000C9070CD0E18F51B1C068A16B0870A06B93
:10188000401CA063E08F401EE0874FF00109FEF787
:10189000E5FFA0EB0800B04202D3701C01D010E0BD
:1018A0007EB1E08E0028CDD1E08F0028CAD142461B
:1018B0003146204600F056FD28B101272020606502
:1018C00007E0032705E0A06818B92068C1688068B0
:1018D0000090012084F85100002084F85000384620
:1018E0002CE770B515460E46040003D094F8490065
:1018F00010B107E0012070BD002084F848002046A8
:1019000000F01AF804F108012068FEF701FE3146E4
:10191000A2682068FEF726FED4E901022946236B5F
:10192000FEF7D6FDA168206850F8212042F00102A0
:1019300040F82120002070BD194800B5016887B02B
:1019400041F001010160006800F0010005901448B9
:101950000838016841F008010160016801F00801E0
:101960000591016841F0100101600068012100F05B
:10197000100005904CF2037000900220CDE90101A7
:1019800003900C20049069460648FEF769FE4FF666
:101990008070009069460448FEF762FE07B000BD03
:1019A00038380240000C0240001002404FF0E021A5
:1019B0000428086903D020F004000861704740F053
:1019C0000400FAE710B5401EB0F1807F01D301207A
:1019D00010BD4FF0E02460610F21601702F018F88D
:1019E0000020A06107202061002010BD70477047D3
:1019F000F8B5016804460868CA684B6910F00F0F13
:101A00004FF0000559D003F0010602F490773743F8
:101A100065D0C10705D0D10503D5216C41F0010186
:101A20002164410705D5D90703D0216C41F002019B
:101A30002164810705D5D90703D0216C41F0040149
:101A40002164010707D502F02001314303D0216C46
:101A500041F008012164216C00293AD0800604D5A8
:101A6000900602D5204600F08EFD20684069216C6A
:101A7000C0F38010090700D460B3204600F05CFD7D
:101A800020684069400621D52068143050E8001FC6
:101A900021F0400140E80012002AF5D1A06BA8B166
:101AA0006C490165A06BFEF7C8FD002811D0A06B42
:101AB000016D01B0BDE8F040084783060FD59306DD
:101AC0000DD52046BDE8F84000F05DBD2046FFF78B
:101AD0008EFFF8BD2046FFF78AFF2564F8BD266B10
:101AE0002023012E79D1C60677D5D60675D508688C
:101AF000486800904869400640D5A16B0868406876
:101B00000004000CEAD0A28D8242E7D9E085C869C2
:101B1000B0F5807F2DD020680C3050E8001F21F4F4
:101B2000807140E80012002AF5D12068143050E896
:101B3000001F21F0010140E80012002AF5D12068C1
:101B4000143050E8001F21F0400140E80012002A44
:101B5000F5D184F83E30256320680C3050E8001F32
:101B600021F0100140E80012002AF5D1A06BFEF729
:101B70001BFDA08DE18D401A81B229E0A08DE18D81
:101B8000401A81B2E08D0028A8D00029A6D0206894
:101B90000C3050E8002F22F4907240E80026002E0E
:101BA000F5D12068143050E8002F22F0010240E8FF
:101BB0000026002EF5D184F83E30256320680C30D5
:101BC00050E8002F22F0100240E80023002BF5D14E
:101BD0002046FFF70BFFF8BDFFE705062BD51506DE
:101BE00029D594F83D002128F5D1A068B0F5805F93
:101BF00001D12069B0B1206A411C216221680078BE
:101C00004860E08C401E0004000CE084E3D12068B2
:101C1000C16821F08001C1602068C16841F04001C5
:101C2000C160D8E7206A0088C0F308004860206AD5
:101C3000801C2062E5E74006CDD55006CBD5CA68AA
:101C4000204622F04002CA6084F83D3000F02EF9B0
:101C5000C1E700002925000870B5040004D094F8FD
:101C60003D00002510B106E0012070BD84F83C5015
:101C7000204600F023F8242084F83D002068C16845
:101C800021F40051C160204600F0DEFC20680169AB
:101C900021F4904101612068416921F02A014161EC
:101CA0002068C16841F40051C1602564202084F897
:101CB0003D0084F83E00002070BD0000F0B587B004
:101CC000044614216846FEF7C5FA384A27683849A1
:101CD0000223012403250726364897421ED1344AA1
:101CE0001432176847F010071760126802F01002EC
:101CF00005920A6842F001020A60096801F00101D8
:101D0000059169028DE87A006946FEF7A9FC252055
:101D1000FEF704FE03221146252021E0244ADFF8C5
:101D200098C0103267451FD1176847F40037176015
:101D3000126802F4003205920A6842F001020A6059
:101D4000096801F0010105910C218DE87A006946CE
:101D5000FEF786FC2620FEF7E1FD03221146262031
:101D6000FEF7EAFD07B0F0BD14488742FAD11068CB
:101D700040F480201060106800F48020059008680E
:101D800040F0020008600868694600F00200059013
:101D90004FF440608DE879000948FEF761FC272088
:101DA000FEF7BCFD032211462720D9E700100140B1
:101DB000303802400000024000440040004800402B
:101DC0000004024090F83E30202B0ED159B152B1A0
:101DD00090F83C30012B08D0012380F83C300023E0
:101DE000036300F0B7BC0120704702207047000079
:101DF00070B50546006826490026264C884213D156
:101E00002046254A0178A0881154401CA08023A0B8
:101E100001F0DAFDA088C72800D9A6801E4801225B
:101E20001C49CC38FFF7CEFF1D492868884213D1E2
:101E30001848194A401CC8320178E0881154401CE7
:101E400080B2E080C72800D9E680124912480122FA
:101E5000491C8838FFF7B6FF12492868884216D116
:101E60000C48114A801C017820891154401C80B212
:101E700041F208012081884200D926810549BDE848
:101E8000704005480122891C4438FFF79BBF70BD94
:101E900000100140040000207401002025630000B0
:101EA0000044004000480040040300207047FEE763
:101EB000094808B5016841F080010160016801F03E
:101EC00080010091016841F001010160006800F0AB
:101ED0000100009008BD0000303802400D4810B5E8
:101EE0000B4901604FF4E1314160002181600C2217
:101EF000C160C0E904128161FFF7AEFE08B1FEF7D0
:101F0000E5FABDE81040012203490248FFF75ABF35
:101F100000100140A8000020040000200E4810B569
:101F20000C4901604FF4E1314160002181600C22D5
:101F3000C160C0E904128161C161FFF78DFE08B183
:101F4000FEF7C4FABDE81040012204490248FFF739
:101F500039BF000000440040EC00002005000020D4
:101F60000E4810B50C4901604FF461214160002119
:101F700081600C22C160C0E904128161C161FFF778
:101F80006BFE08B1FEF7A2FABDE810400122044939
:101F90000248FFF717BF0000004800403001002052
:101FA00006000020FEE7FEE70148FEF7EFBD000057
:101FB000042400202DE9F04103680D4604461E6C00
:101FC00003EB4511D1F8080BD4F810E04FF40047AB
:101FD0004FF0200C04F57172BEF1010F09D0DFF84B
:101FE00098E0764539D1020432D500BFC1F8087BAC
:101FF0003FE0224B5FEA007E04D59E4239D90004BF
:10200000F4D436E05FEA806E02D5C1F808CB30E048
:1020100010F0280F2DD19E4201D90004E6D4C5EB63
:10202000C50004EB8000D1F8101BD0F80432C1F3D6
:102030001201591AC0F81412D0F808121944C0F845
:10204000081295B9D4F8100278B9012120680AE085
:1020500080060AD5C1F808CB07E035B9D4F81002DC
:1020600018B90021184601F0ADF8E9B22046FEF794
:10207000A3FC0020BDE8F0810A31544F0A30544FD0
:102080002DE9F84F0E46C1EBC60100EB81048146F5
:102090000568D4E914103C34884202D90120BDE817
:1020A000F88F081AA168814200D20846C01C870830
:1020B00005EB46181BE000BFA0EB010AA0685045E5
:1020C00000D282460AF10300870899F810000090B8
:1020D0001FFA8AF3F2B22846E16801F0E3FAE168F8
:1020E00001EB0A00E060A16901EB0A00A061D8F8E9
:1020F000180980B2B84205D3D4E90501814201D262
:102100000028D9D1D4E90501884208D806F00F018A
:1021100001208840D5F834188143C5F834180020D0
:10212000BDE770472DE9F04107460B4815460E46BE
:10213000007808B901F0CCFAEFF31184202080F385
:1021400011882A463146384600F008F8E1B281F39A
:102150001188BDE8F08100000C28002070B50E4603
:10216000144900EB400001EBC0051446E86A18353D
:1021700020B101280FD0022805D113E0284601F034
:10218000DBFAA04201D2002411E022463146284663
:1021900001F0F8FB0BE0284601F0CEFAA042F4D2A1
:1021A0000446F2E73146284601F0BFFB04462046CC
:1021B00070BD00000C2800200FB408B504A90091E0
:1021C0006A46039900F003F801B05DF814FB2DE9AD
:1021D000F04198B0064607A8029040200025CDE9BE
:1021E0000305CDE9055690460C4614F8011B00295D
:1021F00073D0252908D002A801F078FB05980028A3
:10220000F3DA18B0BDE8F081002001212278232AFA
:102210001ED02B2A19D02D2A02D0302A08D102E054
:1022200040F0010001E040F00200641C0029EDD103
:1022300000222178A1F130030A2B0CD202EB82029A
:1022400001EB4202303A641CF3E740F00400ECE793
:1022500040F00800E9E70023CFB22E2F0BD114F88D
:10226000011FA1F130070A2F05D203EB830301EB15
:102270004303303BF3E76C290DD068290BD070295C
:1022800054D00BDC252916D0582931D063290CD025
:10229000642913D114E014F8011FECE7732934D03A
:1022A00075291BD0782909D122E0D8F80000011D3A
:1022B000C8F80010017802A801F018FB641C9DE723
:1022C000D8F800100F1DC8F800700968CDE900208B
:1022D0000A2202A801F03CFAF0E733E0D8F8001037
:1022E0000F1DC8F800700968CDE900200A2208E037
:1022F000D8F800100F1DC8F800700968CDE900205B
:10230000102202A801F088FAD8E7D8F80000011DD1
:10231000C8F80010076817F8011B0029CED002A8E2
:1023200001F0E4FA05980028F5DAC7E7D8F80000CC
:10233000011DC8F8001001680820CDE9000503461A
:102340001022DEE7059800287FF75BAF049820B1E4
:10235000024607A93046FFF7E5FEDDE90410084410
:1023600005904EE738B504461248134B0068B0FBA1
:10237000F3F04FF47A73584300906068B0F5827FB1
:102380000DD10B46009200228021204600F016F865
:1023900070B1606D40F020006065032038BD00988A
:1023A00030B1401E009020688068C0430006F6D51A
:1023B000002038BD6800002000366E012DE9F8438A
:1023C0001E46914688460446089DFEF747FA401B84
:1023D000351AFEF743FA074625480068C0F3CB30AC
:1023E000684338E0701C37D0FEF738FAC01BA842AB
:1023F00003D215B1009860B32CE02068416821F049
:10240000E00141606068B0F5827F0BD1A068B0F553
:10241000004F02D0B0F5806F04D12068016821F030
:1024200040010160A06AB0F5005F09D12068016831
:1024300021F4005101602068016841F400510160FD
:10244000012084F85100002084F850000320BDE8EA
:10245000F8830025401E00902068816838EA01005A
:1024600004D000214945BDD10020F0E70121F9E762
:102470006800002070470178407841EA00207047EA
:10248000FEF7F2B930B593B030216846FDF7E2FEB1
:1024900014210CA8FDF7DEFE1D480025016841F05F
:1024A00080510160006800F0805011901948016867
:1024B00041F4804101600068022400F480401190E2
:1024C00001200090000401908001CDE90640042025
:1024D0000890A820CDE9090407200B906846FEF774
:1024E000B9FE08B172B6FEE70CA90F2081E83100F1
:1024F0004FF4A0500F904FF48050109005210CA87D
:10250000FEF7B8FD002801D072B6FEE713B030BD6B
:1025100040380240007000400248016841F47001F8
:102520000160704788ED00E010B5806B0021C18527
:10253000C184FFF75CFA10BD01680C3151E8002F2F
:1025400022F4907241E80023002BF5D10168143188
:1025500051E8002F22F0010241E80023002BF5D1C1
:10256000016B012909D101680C3151E8002F22F0DB
:10257000100241E80023002BF5D1202180F83E1005
:1025800000210163704708B590F83E10222901D060
:10259000022008BD82684FF480539A4201D101693C
:1025A00021B1816A9A421BD04AB10AE00268816A6D
:1025B0005268C2F308020A80816A891C08E0026935
:1025C00072B10268526802F07F020A70816A491C87
:1025D0008162C18D491E0904090CC18503D019E02F
:1025E00002685268F1E70168CA6822F02002CA60F6
:1025F0000168CA6822F48072CA6001684A6922F0E0
:1026000001024A61202180F83E10016B012903D0AC
:10261000FFF7EEFB002008BD0021016301680C31CB
:1026200051E8002F22F0100241E80023002BF5D1E1
:1026300001680A68D20602D50A6849680091818D4E
:10264000FFF7D4F9E6E7000070B5044600680169B9
:10265000E26821F44051114301612169A068E269F7
:1026600008436169114308432168CA6849F20C6351
:102670009A430243CA6020684169A26921F440710B
:102680001143416131492068884202D03049884273
:1026900002D1FEF79FFD01E0FEF78CFDE269002309
:1026A000192164253226B2F5004F626828D0A0FBBC
:1026B0000101930F9200FDF783FD0146B0FBF5F099
:1026C0006FF01802504301EB800006EB0010B0FBE6
:1026D000F5F000F0F002B1FBF5F002EB0012B1FBF7
:1026E000F5F06FF01803584301EB800006EB001083
:1026F000B0FBF5F000F00F0021681044886070BD59
:10270000A0FB010192185B41FDF75AFD0146B0FBA9
:10271000F5F00201B1FBF5F06FF01803584301EB3F
:10272000800006EBC000B0FBF5F000F0F80002EB13
:102730004002B1FBF5F0584301EB800006EBC0000E
:10274000B0FBF5F000F00700D6E7000000100140F4
:102750000014014081628285C28500210164222229
:1027600080F83E2080F83C100168CA6842F480720C
:10277000CA6001684A6942F001024A610068C168A2
:1027800041F02001C1600020704700000148FFF7C0
:102790002FB90000A80000200148FFF729B9000068
:1027A000EC0000200148FFF723B9000030010020B1
:1027B0000FB4002010B5DDE9132108E0029B1B686F
:1027C0005B06FBD5029C135C6360401C80B28842B0
:1027D000F4D310BC5DF814FB10B5D0F8B8220AB1E0
:1027E00052689047002010BD134610B50A460021DC
:1027F00000F094F9002010BD134610B50A460021E0
:1028000000F02AFA002010BD10B50446802100F027
:1028100011FA2046BDE81040002100F00BBA10B5B7
:102820000521C0F8941200231A46194600F076F9E3
:10283000002010BD10B50223C0F894328261134607
:10284000C2610A46002100F007FA002010BD10B551
:102850000421C0F8941200231A46194600F0FCF92E
:10286000002010BDF8B504460020ADF800004888EF
:102870000D46010A08295FD2DFE801F05E0409175E
:102880005E5E3C45D4F8B412207C0A6819E0207CD6
:1028900002260028D4F8B80205D0C16A68468847E5
:1028A0000146467039E0816AF8E7C0B2062843D293
:1028B000DFE800F0030A1014181CD4F8B4024268D0
:1028C00005E0694690471CE0D4F8B402826892B3F0
:1028D000207CF6E7D4F8B402C268F8E7D4F8B40272
:1028E0000269F4E7D4F8B4024269F0E7D4F8B4021C
:1028F0008269ECE7207CF0B9D4F8B802416B6846F5
:102900008847014609E0207CA8B9D4F8B802016BD9
:1029100068468847014607204870EA888AB1BDF8B2
:10292000000040B1824200D90246ADF800202046A6
:10293000FFF780FFF8BDFFE729462046FFF764FF59
:10294000F8E72046FFF783FFF4E701004FF00000AF
:1029500004D0012901D0022901D0032070470120B1
:10296000704710B5D0F8C402FEF734F8BDE8104047
:10297000FFF7EBBF70B51646044621B194F89C02F0
:10298000032841D048E0D4F8941204F11400002543
:10299000022932D1D0E902318B4206D95A1A82601B
:1029A00031462046FFF728FF0FE0994214D14068D6
:1029B000884211D3D4F8981288420DD200221146D1
:1029C0002046FFF719FFC4F8985200231A4619460B
:1029D000204600F0A3F810E094F89C02032805D1EB
:1029E000D4F8B802C16809B1204688478021204642
:1029F00000F020F92046FFF712FF94F8A00201280A
:102A00000AD184F8A05207E0D4F8B80242691AB19A
:102A100020469047002800D1002070BD10B5134615
:102A2000044621B194F89C02032823D02AE0D4F86C
:102A3000941204F5AA70032924D1D0E9021291421C
:102A40000AD98A1A8260C068824200D302461946B7
:102A50002046FFF7C9FE15E094F89C02032805D133
:102A6000D4F8B802016909B1204688472046FFF72B
:102A7000EEFE07E0D4F8B80282691AB1204690470A
:102A8000002800D1002010BD0020704710B50121A2
:102A900080F89C12D0F8B82212B1526801799047A0
:102AA000002010BD0A0601F07F01D0F8C402C1EB7E
:102AB000C10100EB810002D590F83E00704790F80C
:102AC000FE01704710B5D0F8B82222B190F89C32C0
:102AD000032B02D004E0032010BD126A02B190471C
:102AE000002010BD10B5D0F8B82222B190F89C3269
:102AF000032B02D004E0032010BD526A02B19047BC
:102B0000002010BD10B51C461346D0F8C402224662
:102B1000FDF78EFFBDE81040FFF717BF10B5D0F8E6
:102B2000C402FDF7B5FFBDE81040FFF70EBF70B55A
:102B30000125044680F89C520020C4F8940260608D
:102B4000C4F8A402D4F8B802E0B1D4F8BC1221B1A0
:102B5000426812B1002120469047002240231146CE
:102B60002046FFF7CFFF4026A4F8645133460022E9
:102B700080212046C4F86061FFF7C4FFA5840020CF
:102B8000266270BD032070BD90F89C12042903D109
:102B900090F89D1280F89C120020704710B5D0F874
:102BA000B81221B190F89C22032A02D004E003203D
:102BB00010BDC96901B18847002010BD0174002013
:102BC000704710B5D0F8C402FEF720FABDE81040F7
:102BD000FFF7BBBE70B5044600F2AA20054600F020
:102BE00044F80120C4F89402B4F8B002C4F8980282
:102BF00094F8AA0210F01F010AD001290ED0022970
:102C000012D000F080012046BDE8704000F012B8FC
:102C100029462046BDE8704000F0A6B82946204667
:102C2000BDE8704000F0CAB929462046BDE87040B2
:102C300000F024B910B5D0F8C402FDF74DFFBDE88F
:102C40001040FFF782BE90F89C1280F89D1204217C
:102C500080F89C120020704710B5D0F8C402FDF730
:102C600075FFBDE81040FFF770BE70B5054611F85E
:102C7000010B2870087868704C1C2046FFF7FBFB9E
:102C80006880A41C2046FFF7F6FBA880A01CFFF775
:102C9000F2FBE88070BD02460320D2F8B832002B68
:102CA00002D01B6810461847704700002DE9F0411C
:102CB0000F462C4E8978002504463170012906D92B
:102CC00039462046FFF7A0FD0320BDE8F08194F8C7
:102CD0009C0202280CD003281DD039462046FFF75D
:102CE00093FD31782046FFF777FD03252846ECE772
:102CF00099B320466160FFF7CEFF050004D0394646
:102D00002046FFF781FDF1E72046FFF7A0FD0320F5
:102D100084F89C02EAE74FF00208C1B1606888427B
:102D20001BD0C1B22046FFF757FD317820466160C5
:102D3000FFF7B1FF050010D039462046FFF764FDCC
:102D400021792046FFF748FD84F89C82CEE784F87D
:102D50009C8220466160FFF73FFD2046FFF777FD2C
:102D6000C4E700006C0000202DE9F0410A7800253E
:102D700012F0600208D0202A01D0402A71D1D0F888
:102D8000B8229268904731E04B78002201260A2B46
:102D900067D2DFE803F0415E6658660805662D29B4
:102DA000FFF760FD5FE004468888D8B9C888C8B9D5
:102DB0004888802816D200F07F0794F89C020328E8
:102DC00010D084F89E7239462046FFF7FAFE20465E
:102DD000FFF73DFD1FB1022084F89C0243E084F818
:102DE0009C6240E020463CE0FFF760FF05463AE089
:102DF000CB88012B35D190F89C32012B04D0022BCB
:102E000002D0032B2DD104E08260012200F10801E1
:102E100016E00122011D13E090F89C22012A03D044
:102E2000022A01D0032A1CD1CA88022A19D1C660FD
:102E3000D0F8A41209B10321C160022200F10C01F3
:102E4000FFF7F8FC0FE0498801290CD1C0F8A46213
:102E500011E090F89C32012B08D0022B06D0032BF6
:102E600004D0FFF7D1FC2846BDE8F081498801294C
:102E7000F9D1C0F8A422FFF7EAFCF4E72DE9F0410C
:102E80000D46044628780026097910F060000BD022
:102E9000202801D040286DD1D4F8B8022946826894
:102EA00020469047064686E06878A8B3012822D0DD
:102EB00003287CD194F89C02022802D0032876D102
:102EC0000BE0002973D0802971D02046FFF7B2FEB5
:102ED00080212046FFF7AEFE6DE0688838B931B139
:102EE000802904D0E88810B92046FFF7A3FE2046C9
:102EF000FFF7ADFC5FE094F89C020228E1D00328C4
:102F000055D16888A8BB480602D02046FFF729FDA6
:102F10002046FFF79CFCBFE7FFE794F89C020027E0
:102F2000022802D0032842D111E009B180293ED104
:102F3000080601F07F0000EB800004EB800101D562
:102F4000143101E001F5AA7102220F602BE008069E
:102F500001F00F0000EB800004EB80000BD5808CAB
:102F600040B101F07F0000EB800004EB80051435D8
:102F70000CE020E01BE0B0F86401C0B101F07F007C
:102F800000EB800004EB800505F5AA7541B18029AE
:102F900006D02046FFF786FD10B10120286000E032
:102FA0002F60022229462046FFF744FC03E0294611
:102FB0002046FFF729FC3046BDE8F08170B5064693
:102FC000087800240D4610F0600003D0202801D0BE
:102FD000402817D196F89C02012803D0022801D07E
:102FE00003280FD1287901280CD8D6F8B8028268B6
:102FF000304690470446E888204306D13046FFF724
:1030000026FC02E03046FFF7FFFB204670BD0000C3
:1030100070B50A78012302F00F054E78AB401B4CC7
:10302000D0F81C58012E17D045EA0343C0F81C38CD
:1030300000EB4210D0F8002B12040BD4D0F8002B78
:103040000B89C978C3F30A031A4344EA81410A434E
:10305000C0F8002B002070BD9BB21D43C0F81C5867
:1030600000EB4210D0F800391B04F3D4D0F800393B
:103070000D89C978C5F30A0589042B4341EA8251B9
:103080000B432343C0F80039E4E700000080001040
:10309000D0F800196FF30A01C0F80019D0F804182D
:1030A00041F48071C0F804180020704770B50D78A5
:1030B0004E78434CEBB200EB4313012E1FD0D3F8F4
:1030C000100B6FF31200C3F8100BD3F8100B204055
:1030D000C3F8100B486908B188684861D3F8100B31
:1030E00040F40020C3F8100BD3F8100B8C68C4F325
:1030F00012042043C3F8100B012A55D058E04E6942
:10310000002ED3F8106932D06FF31206C3F810699D
:10311000D3F810692640C3F810694E698C68A6423E
:1031200000D94C61D3F8104944F40024C3F8104985
:10313000D3F810494E69C6F312063443C3F8104958
:10314000012A22D000EB4512D2F8003943F00443A3
:10315000C2F800394A6932B3D0F83428097801F04E
:103160000F03012199400A43C0F8342826E0264085
:10317000C3F81069D3F8104944F40024C3F8104987
:10318000D3F810496FF31204D8E7096919B100EBBD
:103190004512C2F8141900EB4510D0F8001941F09F
:1031A0000441C0F8001909E0C86808B1C3F8140B5D
:1031B000D3F8000B40F00440C3F8000B002070BDB2
:1031C000FFFF07E010B5036C134CA34203D9D0F8FE
:1031D000003B002B1EDB0023C0F8103BD0F8103B57
:1031E00043F40023C0F8103BD0F8103B43F0180321
:1031F000C0F8103BD0F8103B43F0C043C0F8103B80
:10320000012907D1C0F8142BD0F8001B41F0802110
:10321000C0F8001B002010BD0A30544F4A780B78CC
:10322000012A00EB43100BD0D0F8002B22F400123F
:10323000C0F8002BC978032914D0022912D017E056
:10324000D0F8002922F40012C0F80029C978032917
:1032500001D002290CD1D0F8001941F08051C0F8FA
:10326000001905E0D0F8001B41F08051C0F8001BA8
:10327000002070470A784B78D1B200EB4110012B47
:1032800012D0D0F8001B002906DB2AB1D0F8001BB1
:1032900021F08041C0F8001BD0F8001B41F4001160
:1032A000C0F8001B00207047D0F80019002906DB89
:1032B0002AB1D0F8001921F08041C0F80019D0F8E7
:1032C000001941F40011C0F80019EBE7F8B50C78CB
:1032D0004F78774DE3B26FF0604600EB4313012F58
:1032E00026D0D3F8104B6FF31204C3F8104BD3F869
:1032F000104B2C40C3F8104B4C69002C74D08D68D7
:103300002C44641EB4FBF5F4D3F8105BA4B206EAB7
:10331000C4463543C3F8105BD3F8105B8E68664330
:10332000C6F312042543C3F8105B012A71D0A6E04E
:103330004F691FB3D3F810796FF31207C3F81079F0
:10334000D3F810792F40C3F810794F698D682F4456
:103350007F1EB7FBF5F506EAC545D3F8106935437E
:10336000C3F81059D3F810594E69C6F31206354305
:10337000C3F81059CD78012D10D01BE0D3F8106997
:103380002E40C3F81069D3F8105945F40025C3F84E
:103390001059D3F810596FF3120509E0D3F81059FA
:1033A00025F0C045C3F81059D3F8105945F0005521
:1033B000C3F81059012A18D000EB4413D3F8004980
:1033C00044F00444C3F80049CC78012C2FD04A695A
:1033D00062B3D0F83428097801F00F030121994035
:1033E0000A43C0F8342860E036E00A691AB100EBFD
:1033F0004413C3F81429C97801290FD1D0F808184B
:10340000C90500EB4411D1F8002903D442F0005261
:1034100002E030E042F08052C1F8002900EB441095
:10342000D0F8001941F00441C0F800193DE0D0F88F
:103430000848E405D3F8004902D444F0005401E000
:1034400044F08054C3F8004900928A8A93B20A7803
:10345000C96800F027F928E0D3F8104B8D68C5F350
:1034600012052C43C3F8104BD3F8104B44F400243E
:10347000C3F8104B59E7CA680AB1C3F8142BC978CE
:1034800001290CD1D0F80808C005D3F8000B02D4EC
:1034900040F0005001E040F08050C3F8000BD3F83A
:1034A000000B40F00440C3F8000B0020F8BD000002
:1034B000FFFF07E008B500220092202242EA8111B6
:1034C00001610649009A521C00928A4201D90320E8
:1034D00008BD02699206F5D4002008BD400D030026
:1034E000D0F8080810F0060004D0022803D00628FF
:1034F00001D00F20704702207047406900F00100A2
:103500007047D0F81818D0F81C08084080B27047EF
:10351000D0F81818D0F81C080840000C704710B5F7
:10352000D0F81038D0F8342801F00F0400EB411027
:10353000E24002F00102D0F8080943EAC21210404A
:1035400010BD00EB4111D1F8081BD0F81408084059
:103550007047416980690840704730B503460846A6
:10356000940802F00301002203F5805303E01D6874
:1035700040F8045B521CA242F9D300290BD01C680E
:103580000022D50024FA05F3491E521C090400F854
:10359000013B090CF5D130BDD0F8002822F4FE62C1
:1035A000C0F80028D0F800284FF4FE6303EA0111A8
:1035B0000A43C0F80028002070470000022A3ED1CC
:1035C000264A274B0A449A4201D20F2138E0254A65
:1035D000254B0A449A4201D20E2131E0234A244B62
:1035E0000A449A4201D20D212AE0224A224B0A447F
:1035F0009A4201D20C2123E0204A214B0A449A42EC
:1036000001D20B211CE01F4A1F4B0A449A4201D2EF
:103610000A2115E01D4A1E4B0A449A420FD31D4A47
:103620001D4B0A449A4201D2082109E01B4A114469
:103630001B4A914201D2072102E0062100E0092144
:10364000C26822F47052C260C2684FF4705303EA39
:1036500081210A43C260002070470000405327FFC9
:1036600000350C00401E1BFF40420F0000DC0BFF2A
:10367000804F1200808CF9FE20D6130060B6E5FE64
:1036800060E3160000D3CEFE40771B00C05BB3FEA4
:10369000C091210000CA91FE20753800E05459FE07
:1036A000E09C410010B5029C74B9DB1C9C0800EB47
:1036B0000230002300F5805004E000BF51F8042BD5
:1036C00002605B1CA342F9D3002010BDFEE700009E
:1036D00010B5124C01202061606111A0A06104F1BD
:1036E0004800E0614FF4407020620020A0620CA10D
:1036F0006062C4E90B0104F552716163102120641A
:10370000C4E90E10606409A1E01DFCF7AEFD08A13C
:103710002046FCF7AAFD2020A07110BD0C28002037
:103720005465726D696E616C000000005254540063
:1037300053454747455200000269C1688A4203D891
:103740008068401A104400E0501A401E7047000084
:103750002DE9FC5F0E008146DDE90C47C6F1000053
:1037600098469346824600D40846012503E000BFF0
:1037700090FBFBF06D1C5845FADAA84500D9454688
:1037800024B1002E01DB780700D5641EB80702D5EE
:10379000B8F1000F0FD0F8070DD164B1A5420AD2DD
:1037A00020214846641E00F0A1F8D9F80C0000283A
:1037B000F3DABDE8FC9FD9F80C000028F9DB002EF5
:1037C00002DA56462D2102E0780707D52B2148461C
:1037D00000F08CF8D9F80C000028EADB07F00300B1
:1037E00002280FD1B8F1000F0CD15CB1A54209D26B
:1037F00030214846641E00F079F8D9F80C00002802
:10380000F3DAD6E7CDE9004743465A463146484603
:1038100000F002F8CDE700002DE9F84F8246DDE91F
:103820000A4B0126984691460D460846374602E067
:10383000B0FBF9F07F1C4845FAD2B84500D947469D
:103840005FEACB7017D1B4B15FEA8B7002D5B8F1E3
:10385000000F02D0202000900BE03020FBE7504604
:10386000641E009900F042F8DAF80C00002838DBFA
:103870000CB1A742F3D3DAF80C00002831DB00BF0B
:10388000B8F1010F02D9A8F1010803E0B5FBF6F089
:10389000484502D306FB09F6F2E7DFF84C8000BF8B
:1038A000B5FBF6F000FB165518F80010504600F076
:1038B0001DF8DAF80C00002803DBB6FBF9F6002E41
:1038C000EED15FEACB700CD0002C0AD0A74208D210
:1038D00020215046641E00F009F8DAF80C00002898
:1038E000F2DABDE8F88F000040B3000810B50446D6
:1038F000D4E90130421C934205D323681954A260D5
:10390000E068401CE060D4E90102824209D12168EC
:103910002069FEF707FCA168884203D04FF0FF3012
:10392000E06010BD0020A06010BD2DE9F047C46824
:103930001746894606464FF000083069A04201D973
:10394000051B02E0B168201A0D1AB0686D1E001B3D
:10395000A84200D80546BD4200D33D4670682A46BD
:1039600020444946FCF75DFCB0687F1B2C44A8440A
:10397000A944A04200D10024F460002FDDD14046CC
:10398000BDE8F0872DE9F04104468846D4E90207F6
:10399000C51BE168606816460844B54206D9414631
:1039A000FCF73FFCB819E060BDE8F0812A464146CB
:1039B000FCF737FC761B08EB050132466068FCF724
:1039C00030FCE660F0E700000FB4054B10B503A92A
:1039D000044A029800F03CF810BC5DF814FB0000AB
:1039E000593F0008A40000200FB4084B10B504A9EB
:1039F00002AA039800F02CF8044602A9002000F067
:103A000058FA204610BC5DF814FB0000B33E0008D5
:103A10000907090E002804DB00F1E02080F80014FB
:103A2000704700F00F0000F1E02080F8141D70478F
:103A300002E008C8121F08C1002AFAD17047704777
:103A4000002001E001C1121F002AFBD170470000D5
:103A50002DE9FF4F8DB00F460546002606E02528CC
:103A60000BD0DDE90F1290476D1C761C28780028DA
:103A7000F5D111B03046BDE8F08F0024A246A14632
:103A80000122EC4900E0044315F8013F203B02FA13
:103A900003F00842F7D128782A2810D06FF02F02BF
:103AA0002878A0F13001092914D80AEB8A0102EB29
:103AB000410144F0020400EB010A6D1CF0E701CF64
:103AC0005FEA000A03D544F40054CAF1000A44F046
:103AD00002046D1C28782E2817D115F8010F44F028
:103AE00004042A280ED06FF02F022878A0F13001AC
:103AF00009290AD809EB890102EB410100EB010910
:103B00006D1CF2E757F8049B6D1C28786C280FD0C9
:103B100006DC4C2817D068280DD06A2814D104E0A0
:103B2000742810D07A280FD10DE044F400140AE074
:103B300044F4801401E044F440146978814202D1D5
:103B400004F580146D1C6D1C2A786E2A1FD00CDCC5
:103B5000632A31D004DC002A8BD0582A11D1A3E08B
:103B6000642A68D0692A0CD165E0732A2ED004DC5F
:103B70006F2A73D0702A04D19BE0752A6FD0782AFF
:103B80006ED01046DDE90F129047761C50E1C4F369
:103B90000250022806D0032809D0042801CF09D0FA
:103BA000066045E101CFF117C0E9006140E101CFB6
:103BB00006803DE106703BE117F8040B8DF800002C
:103BC00000208DF80100EB46012003E057F804BB0C
:103BD0004FF0FF3061074FF0000102D40DE008F113
:103BE0000101884649450FDA8045F8DB1BF80810CB
:103BF0000029F4D108E008F1010188468142FADB8E
:103C00001BF808100029F6D1DDE90F23AAEB080004
:103C10008146214600F036F9304400EB080604E006
:103C2000DDE90F121BF8010B9047B8F10108F7D23C
:103C300021464846F7E00A21C4F302534FF0000B37
:103C40000891022B04D001CFC117032B09D00AE041
:103C5000FF1D27F00707F7E8020108E032E01FE048
:103C600020E000B2C117042B01D140B2C117031EDE
:103C700071F1000307DA4FF0000CD0EB0C006CEB95
:103C800001012D2302E0230504D52B238DF82430D8
:103C9000012303E0E30701D02023F7E7984658E02B
:103CA0000A2110E010210EE010204FF0000B0890C8
:103CB0000CE010214FF0000B44F004044FF0080911
:103CC000089103E008214FF0000B0891C4F3025360
:103CD000022B04D001CF0021032B06D006E0FF1DEC
:103CE00027F00707F7E8020103E080B2042B00D1B8
:103CF000C0B24FF0000823072BD5702A07D0DDF89B
:103D000020C08CF0100C5CEA0B0C05D00EE04023B8
:103D10008DF82430012308E050EA010306D0302357
:103D20008DF824308DF8252002239846DDF820C038
:103D30008CF0080C5CEA0B0C0BD150EA010301D1AA
:103D4000630706D530238DF824304FF00108A9F120
:103D50000109582A04D038A20B9208AA0A920BE053
:103D60003AA2F9E75B46089AFCF72AFA0B9B9B5CA0
:103D70000A9A521E0A92137050EA0102F2D10A986E
:103D8000ADEB000000F1200B600702D524F4803475
:103D900001E04FF00109D94502DDA9EB0B0000E07D
:103DA000002000EB0B0141440890AAEB010AE0035C
:103DB00006D4DDE90F232146504600F063F806449F
:103DC0004FF0000908E009A911F80900DDE90F1218
:103DD000904709F10109761CC145F4DBE0030CD5DD
:103DE000DDE90F232146504600F04CF8064404E07C
:103DF000DDE90F1230209047761C0899481E089084
:103E00000029F5DC08E00A980A990078491C0A9113
:103E1000DDE90F129047761CBBF10001ABF1010BFD
:103E2000F1DC21465046DDE90F2300F019F8064485
:103E30006D1C1BE60928010030313233343536372A
:103E400038396162636465660000000030313233E6
:103E50003435363738394142434445460000000086
:103E60002DE9F041044600251E461746880404D477
:103E700005E039462020B0476D1C641EF9D5284660
:103E8000BDE8F0812DE9F041044600251E4690462C
:103E9000C80301D5302700E02027880404D505E0B9
:103EA00041463846B0476D1C641EF9D52846BDE82A
:103EB000F0810A68531C0B6010707047034610B500
:103EC0000020024604E09C5C521C204480B292B266
:103ED0008A42F8D310BD000010B504460420FDF757
:103EE00065FD0148046010BD000000201E2170B572
:103EF000B0FBF1F2B0FBF1F501FB120447F23056D2
:103F000003E0304600F00EF86D1E002DF9D1002CB4
:103F100006D04FF47A706043BDE8704000F002B8FC
:103F200070BD000070B54FF0E024002265690949BA
:103F3000A36909684843A1699942FCD002D2A3EB66
:103F4000010302E0A5EB010633441A440B4682420A
:103F5000F1D370BD0000002003490A685206FCD569
:103F6000C2B24A60704700000010014070B50A49B3
:103F70000646002408884D8821464543204602F025
:103F800043FF03F095F84FF0D84002E0A0F88060BE
:103F9000641CAC42FAD370BD882300202DE9F04F99
:103FA00038492C260A46887192884FF4305A4FF4CB
:103FB000285B41F6631E2B274FF02A0C4FF0F008C8
:103FC00045F210594FF448754FF4A0744FF4F07354
:103FD00058B10C80A1F802804A4530D1A1F808A060
:103FE000A1F80AB03802888141E0A1F800804C8035
:103FF0004A4507D1A1F808A0A1F80AB04FF42C5007
:10400000888105E072450E8105D14F81A1F80CC071
:104010000B804D8002E0A1F80AC08F81A2F5A64076
:10402000103803D0A2F5EE40963801D10C804B80B9
:10403000A2F5184006381FD10B804D801CE0724558
:1040400011D0A2F5184006380DD00E81A1F80AC093
:10405000A1F80C70A2F5A64010380BD0A2F5EE40E6
:10406000963807D008E00E81A1F80AC08F810D8034
:104070004B80EFE70B804C80BDE8F04F002002F052
:1040800001BE00008823002010B5144602F0BCFEDB
:1040900003F00EF84FF0D840A0F8804010BD10B5E6
:1040A000CF2002F0F9FF002002F0EAFFC12002F069
:1040B000E7FF302002F0E4FFED2002F0EDFF642086
:1040C00002F0DEFF032002F0DBFF122002F0D8FF37
:1040D000812002F0D5FFE82002F0DEFF852002F00B
:1040E000CFFF102002F0CCFF7A2002F0C9FFCB20D6
:1040F00002F0D2FF392002F0C3FF2C2002F0C0FFF3
:10410000002002F0BDFF342002F0BAFF022002F0CE
:10411000B7FFF72002F0C0FF202002F0B1FFEA2035
:1041200002F0BAFF002002F0ABFF002002F0A8FF6F
:10413000C02002F0B1FF1B2002F0A2FFC12002F05C
:10414000ABFF012002F09CFFC52002F0A5FF30204C
:1041500002F096FF302002F093FFC72002F09CFF90
:10416000B72002F08DFF362002F096FF482002F0C3
:1041700087FF3A2002F090FF552002F081FFB12026
:1041800002F08AFF002002F07BFF1A2002F078FF85
:10419000B62002F081FF0A2002F072FFA22002F096
:1041A0006FFFF22002F078FF002002F069FF262066
:1041B00002F072FF012002F063FFE02002F06CFFCA
:1041C0000F2002F05DFF2A2002F05AFF282002F0A3
:1041D00057FF082002F054FF0E2002F051FF082084
:1041E00002F04EFF542002F04BFFA92002F048FFDE
:1041F000432002F045FF0A2002F042FF0F2002F0A8
:104200003FFF002002F03CFF002002F039FF0020B9
:1042100002F036FF002002F033FFE12002F03CFF05
:10422000002002F02DFF152002F02AFF172002F0D7
:1042300027FF072002F024FF112002F021FF0620B3
:1042400002F01EFF2B2002F01BFF562002F018FF89
:104250003C2002F015FF052002F012FF102002F0B2
:104260000FFF0F2002F00CFF3F2002F009FF3F205C
:1042700002F006FF0F2002F003FF2B2002F00CFFDC
:10428000002002F0FDFE002002F0FAFE012002F004
:10429000F7FE3F2002F0F4FE2A2002F0FDFE00208F
:1042A00002F0EEFE002002F0EBFE002002F0E8FE3D
:1042B000EF2002F0E5FE112002F0EEFE7820FFF77D
:1042C00015FEBDE81040292002F0E6BE10B5FF2023
:1042D00002F0E2FEFF2002F0D3FE982002F0D0FEB2
:1042E000062002F0CDFEBC2002F0D6FE012002F036
:1042F000C7FE0F2002F0C4FE612002F0C1FEFF20C5
:1043000002F0BEFE012002F0BBFE012002F0B8FE6A
:104310000B2002F0B5FE102002F0B2FE372002F0B2
:10432000AFFE632002F0ACFEFF2002F0A9FEFF20EA
:1043300002F0A6FE012002F0A3FE012002F0A0FE82
:10434000002002F09DFE002002F09AFEFF2002F005
:1043500097FE522002F094FE012002F091FE002010
:1043600002F08EFE402002F08BFEBD2002F094FE93
:10437000012002F085FE232002F082FE452002F09B
:104380007FFE672002F07CFE012002F079FE2320F0
:1043900002F076FE452002F073FE672002F070FE08
:1043A000BE2002F079FE002002F06AFE012002F039
:1043B00067FEAB2002F064FE602002F061FE222066
:1043C00002F05EFE222002F05BFE222002F058FE88
:1043D000222002F055FE222002F052FEC72002F0F9
:1043E0005BFE362002F04CFEED2002F055FE7F20F1
:1043F00002F046FE0F2002F043FEC02002F04CFE09
:104400000F2002F03DFE0B2002F03AFE0A2002F0DF
:1044100037FEFC2002F040FE082002F031FEDF20D3
:1044200002F03AFE002002F02BFE002002F028FEEF
:10443000002002F025FE002002F022FE002002F003
:104440001FFE202002F01CFEF32002F025FE742047
:1044500002F016FEB42002F01FFE002002F010FE53
:10446000002002F00DFE002002F00AFEF72002F00C
:1044700013FE822002F004FEB12002F00DFE0020A7
:1044800002F0FEFD132002F0FBFD132002F0F8FD08
:10449000F22002F001FE802002F0F2FD042002F082
:1044A000EFFD402002F0ECFD282002F0E9FDC120E4
:1044B00002F0F2FD172002F0E3FD882002F0E0FD9B
:1044C000882002F0DDFD202002F0DAFDE02002F07D
:1044D000E3FD002002F0D4FD0A2002F0D1FD1220FD
:1044E00002F0CEFD102002F0CBFD0E2002F0C8FD40
:1044F000202002F0C5FDCC2002F0C2FD072002F012
:10450000BFFD062002F0BCFD0B2002F0B9FD0E201D
:1045100002F0B6FD0F2002F0B3FD0D2002F0B0FD59
:10452000152002F0ADFD102002F0AAFD002002F0DF
:10453000A7FDE12002F0B0FD002002F0A1FD0B205C
:1045400002F09EFD132002F09BFD0D2002F098FD6D
:104550000E2002F095FD1B2002F092FD712002F06A
:104560008FFD062002F08CFD062002F089FD0A2056
:1045700002F086FD0F2002F083FD0E2002F080FD88
:104580000F2002F07DFD152002F07AFD0C2002F0D4
:1045900077FD002002F074FD2A2002F07DFD00204E
:1045A00002F06EFD002002F06BFD012002F068FDBC
:1045B000DF2002F065FD2B2002F06EFD002002F0EE
:1045C0005FFD002002F05CFD032002F059FD1F207A
:1045D00002F056FD3A2002F05FFD552002F050FD3A
:1045E000362002F059FD002002F04AFD112002F0B1
:1045F00053FD7820FFF77AFC292002F04DFD1420AE
:10460000FFF774FCBDE810402C2002F045BD10B54A
:10461000ED2002F041FD012002F032FDFE2002F00B
:104620002FFDEE2002F038FDDE2002F029FD2120D2
:1046300002F026FDF12002F02FFD012002F020FD06
:10464000DF2002F029FD102002F01AFDC42002F044
:1046500023FD8F2002F014FDC62002F01DFD002076
:1046600002F00EFDE22002F00BFDE22002F008FD58
:10467000E22002F005FDBF2002F00EFDAA2002F0AC
:10468000FFFCB02002F008FD0D2002F0F9FC002034
:1046900002F0F6FC0D2002F0F3FC002002F0F0FC2A
:1046A000112002F0EDFC002002F0EAFC192002F0DB
:1046B000E7FC002002F0E4FC212002F0E1FC0020F5
:1046C00002F0DEFC2D2002F0DBFC002002F0D8FC22
:1046D0003D2002F0D5FC002002F0D2FC5D2002F06B
:1046E000CFFC002002F0CCFC5D2002F0C9FC0020D1
:1046F00002F0C6FCB12002F0CFFC802002F0C0FC2A
:10470000002002F0BDFC8B2002F0BAFC002002F079
:10471000B7FC962002F0B4FC002002F0B1FCB220FD
:1047200002F0BAFC002002F0ABFC002002F0A8FC72
:10473000022002F0A5FC002002F0A2FC032002F0FF
:104740009FFC002002F09CFCB32002F0A5FC00209E
:1047500002F096FC002002F093FC002002F090FC96
:10476000002002F08DFC002002F08AFC002002F004
:1047700087FC002002F084FC002002F081FC002075
:1047800002F07EFC002002F07BFC002002F078FCAE
:10479000002002F075FC002002F072FC002002F004
:1047A0006FFC002002F06CFC002002F069FC00208D
:1047B00002F066FC002002F063FC002002F060FCC6
:1047C000002002F05DFC002002F05AFC002002F004
:1047D00057FC002002F054FC002002F051FCB420F1
:1047E00002F05AFC8B2002F04BFC002002F048FC47
:1047F000962002F045FC002002F042FCA12002F0CD
:104800003FFC002002F03CFCB52002F045FC0220F9
:1048100002F036FC002002F033FC032002F030FCF2
:10482000002002F02DFC042002F02AFC002002F0FF
:1048300027FCB62002F030FC002002F021FC002012
:1048400002F01EFCB72002F027FC002002F018FC4A
:10485000002002F015FC3F2002F012FC002002F0C4
:104860000FFC5E2002F00CFC002002F009FC64202A
:1048700002F006FC002002F003FC8C2002F000FC99
:10488000002002F0FDFBAC2002F0FAFB002002F059
:10489000F7FBDC2002F0F4FB002002F0F1FB7020BB
:1048A00002F0EEFB002002F0EBFB902002F0E8FBB0
:1048B000002002F0E5FBEB2002F0E2FB002002F01A
:1048C000DFFBDC2002F0DCFB002002F0D9FBB8208B
:1048D00002F0E2FB002002F0D3FB002002F0D0FB4C
:1048E000002002F0CDFB002002F0CAFB002002F005
:1048F000C7FB002002F0C4FB002002F0C1FB002037
:1049000002F0BEFBBA2002F0C7FB242002F0B8FB85
:10491000002002F0B5FB002002F0B2FB002002F004
:10492000AFFBC12002F0B8FB202002F0A9FB002061
:1049300002F0A6FB542002F0A3FB002002F0A0FB33
:10494000FF2002F09DFB002002F09AFBC22002F043
:10495000A3FB0A2002F094FB002002F091FB04204C
:1049600002F08EFB002002F08BFBC32002F094FBD0
:104970003C2002F085FB002002F082FB3A2002F08E
:104980007FFB002002F07CFB392002F079FB002045
:1049900002F076FB372002F073FB002002F070FB80
:1049A0003C2002F06DFB002002F06AFB362002F092
:1049B00067FB002002F064FB322002F061FB002064
:1049C00002F05EFB2F2002F05BFB002002F058FBA0
:1049D0002C2002F055FB002002F052FB292002F0AF
:1049E0004FFB002002F04CFB262002F049FB002088
:1049F00002F046FB242002F043FB002002F040FBC3
:104A0000242002F03DFB002002F03AFB232002F0BC
:104A100037FB002002F034FB3C2002F031FB002089
:104A200002F02EFB362002F02BFB002002F028FBC8
:104A3000322002F025FB002002F022FB2F2002F0A2
:104A40001FFB002002F01CFB2C2002F019FB0020B1
:104A500002F016FB292002F013FB002002F010FBED
:104A6000262002F00DFB002002F00AFB242002F0B9
:104A700007FB002002F004FB242002F001FB0020D1
:104A800002F0FEFA232002F0FBFA002002F0F8FA0E
:104A9000C42002F001FB622002F0F2FA002002F0D2
:104AA000EFFA052002F0ECFA002002F0E9FA842087
:104AB00002F0E6FA002002F0E3FAF02002F0E0FA59
:104AC000002002F0DDFA182002F0DAFA002002F0ED
:104AD000D7FAA42002F0D4FA002002F0D1FA18206C
:104AE00002F0CEFA002002F0CBFA502002F0C8FA11
:104AF000002002F0C5FA0C2002F0C2FA002002F0F9
:104B0000BFFA172002F0BCFA002002F0B9FA952093
:104B100002F0B6FA002002F0B3FAF32002F0B0FA85
:104B2000002002F0ADFAE62002F0AAFA002002F01E
:104B3000A7FAC52002F0B0FA322002F0A1FA002054
:104B400002F09EFA442002F09BFA002002F098FA4C
:104B5000652002F095FA002002F092FA762002F029
:104B60008FFA002002F08CFA882002F089FA0020E7
:104B700002F086FAC62002F08FFA202002F080FAB6
:104B8000002002F07DFA172002F07AFA002002F0ED
:104B900077FA012002F074FA002002F071FAC720BF
:104BA00002F07AFA002002F06BFA002002F068FAB4
:104BB000002002F065FA002002F062FAC82002F03C
:104BC0006BFA002002F05CFA002002F059FA002093
:104BD00002F056FA002002F053FAC92002F05CFA03
:104BE000002002F04DFA002002F04AFA002002F004
:104BF00047FA002002F044FA002002F041FA0020B7
:104C000002F03EFA002002F03BFA002002F038FAEF
:104C1000002002F035FA002002F032FA002002F003
:104C20002FFA002002F02CFA002002F029FA0020CE
:104C300002F026FA002002F023FA002002F020FA07
:104C4000E02002F029FA162002F01AFA002002F001
:104C500017FA1C2002F014FA002002F011FA2120A9
:104C600002F00EFA002002F00BFA362002F008FAE9
:104C7000002002F005FA462002F002FA002002F0BD
:104C8000FFF9522002F0FCF9002002F0F9F964204B
:104C900002F0F6F9002002F0F3F97A2002F0F0F9C0
:104CA000002002F0EDF98B2002F0EAF9002002F07A
:104CB000E7F9992002F0E4F9002002F0E1F9A820D8
:104CC00002F0DEF9002002F0DBF9B92002F0D8F999
:104CD000002002F0D5F9C42002F0D2F9002002F041
:104CE000CFF9CA2002F0CCF9002002F0C9F9D22095
:104CF00002F0C6F9002002F0C3F9D92002F0C0F991
:104D0000002002F0BDF9E02002F0BAF9002002F024
:104D1000B7F9F32002F0B4F9002002F0B1F9E12074
:104D200002F0BAF9162002F0ABF9002002F0A8F95F
:104D30001C2002F0A5F9002002F0A2F9222002F0C6
:104D40009FF9002002F09CF9362002F099F900202A
:104D500002F096F9452002F093F9002002F090F954
:104D6000522002F08DF9002002F08AF9642002F04E
:104D700087F9002002F084F97A2002F081F90020FE
:104D800002F07EF98B2002F07BF9002002F078F926
:104D9000992002F075F9002002F072F9A82002F0C3
:104DA0006FF9002002F06CF9B92002F069F90020D7
:104DB00002F066F9C42002F063F9002002F060F905
:104DC000CA2002F05DF9002002F05AF9D22002F068
:104DD00057F9002002F054F9D82002F051F90020D0
:104DE00002F04EF9E02002F04BF9002002F048F901
:104DF000F32002F045F9002002F042F9E22002F02F
:104E00004BF9052002F03CF9002002F039F90B20A3
:104E100002F036F9002002F033F91B2002F030F9DD
:104E2000002002F02DF9342002F02AF9002002F0CF
:104E300027F9442002F024F9002002F021F94F2044
:104E400002F01EF9002002F01BF9612002F018F9AF
:104E5000002002F015F9792002F012F9002002F08A
:104E60000FF9882002F00CF9002002F009F99720D0
:104E700002F006F9002002F003F9A62002F000F982
:104E8000002002F0FDF8B72002F0FAF8002002F04E
:104E9000F7F8C22002F0F4F8002002F0F1F8C72081
:104EA00002F0EEF8002002F0EBF8D12002F0E8F872
:104EB000002002F0E5F8D62002F0E2F8002002F02F
:104EC000DFF8DD2002F0DCF8002002F0D9F8F32052
:104ED00002F0D6F8002002F0D3F8E32002F0DCF86C
:104EE000052002F0CDF8002002F0CAF80A2002F0F6
:104EF000C7F8002002F0C4F81C2002F0C1F800201E
:104F000002F0BEF8332002F0BBF8002002F0B8F83F
:104F1000442002F0B5F8002002F0B2F8502002F070
:104F2000AFF8002002F0ACF8622002F0A9F80020EF
:104F300002F0A6F8782002F0A3F8002002F0A0F812
:104F4000882002F09DF8002002F09AF8972002F0E5
:104F500097F8002002F094F8A62002F091F80020C3
:104F600002F08EF8B72002F08BF8002002F088F8EB
:104F7000C22002F085F8002002F082F8C72002F07B
:104F80007FF8002002F07CF8D12002F079F80020B0
:104F900002F076F8D52002F073F8002002F070F8E5
:104FA000DD2002F06DF8002002F06AF8F32002F034
:104FB00067F8002002F064F8E42002F06DF80120A8
:104FC00002F05EF8002002F05BF8012002F058F8D1
:104FD000002002F055F8022002F052F8002002F002
:104FE0004FF82A2002F04CF8002002F049F83C204B
:104FF00002F046F8002002F043F84B2002F040F89F
:10500000002002F03DF85D2002F03AF8002002F0A6
:1050100037F8742002F034F8002002F031F88420D0
:1050200002F02EF8002002F02BF8932002F028F86E
:10503000002002F025F8A22002F022F8002002F061
:105040001FF8B32002F01CF8002002F019F8BE206F
:1050500002F016F8002002F013F8C42002F010F855
:10506000002002F00DF8CD2002F00AF8002002F036
:1050700007F8D32002F004F8002002F001F8DD2048
:1050800001F0FEFF002001F0FBFFF32001F0F8FF2C
:10509000002001F0F5FFE52001F0FEFF002001F007
:1050A000EFFF002001F0ECFF002001F0E9FF0020FD
:1050B00001F0E6FF022001F0E3FF002001F0E0FF35
:1050C000292001F0DDFF002001F0DAFF3C2001F093
:1050D000D7FF002001F0D4FF4B2001F0D1FF0020CA
:1050E00001F0CEFF5D2001F0CBFF002001F0C8FFF2
:1050F000742001F0C5FF002001F0C2FF842001F000
:10510000BFFF002001F0BCFF932001F0B9FF002099
:1051100001F0B6FFA22001F0B3FF002001F0B0FFC4
:10512000B32001F0ADFF002001F0AAFFBE2001F086
:10513000A7FF002001F0A4FFC42001F0A1FF002080
:1051400001F09EFFCD2001F09BFF002001F098FFB1
:10515000D32001F095FF002001F092FFDC2001F048
:105160008FFF002001F08CFFF32001F089FF002069
:1051700001F086FFE62001F08FFF112001F080FF93
:10518000002001F07DFF342001F07AFF002001F0C3
:1051900077FF562001F074FF002001F071FF7620A8
:1051A00001F06EFF002001F06BFF772001F068FF37
:1051B000002001F065FF662001F062FF002001F091
:1051C0005FFF882001F05CFF002001F059FF99206B
:1051D00001F056FF002001F053FFBB2001F050FF0B
:1051E000002001F04DFF992001F04AFF002001F05E
:1051F00047FF662001F044FF002001F041FF5520E9
:1052000001F03EFF002001F03BFF552001F038FF88
:10521000002001F035FF452001F032FF002001F0B1
:105220002FFF432001F02CFF002001F029FF442034
:1052300001F026FF002001F023FFE72001F02CFF02
:10524000322001F01DFF002001F01AFF552001F06F
:1052500017FF002001F014FF762001F011FF00205D
:1052600001F00EFF662001F00BFF002001F008FFA7
:10527000672001F005FF002001F002FF672001F028
:10528000FFFE002001F0FCFE872001F0F9FE002067
:1052900001F0F6FE992001F0F3FE002001F0F0FE8F
:1052A000BB2001F0EDFE002001F0EAFE992001F0A4
:1052B000E7FE002001F0E4FE772001F0E1FE00208F
:1052C00001F0DEFE442001F0DBFE002001F0D8FEFC
:1052D000562001F0D5FE002001F0D2FE232001F07F
:1052E000CFFE002001F0CCFE332001F0C9FE0020EB
:1052F00001F0C6FE452001F0C3FE002001F0C0FE13
:10530000E82001F0C9FE002001F0BAFE002001F003
:10531000B7FE992001F0B4FE002001F0B1FE872015
:1053200001F0AEFE002001F0ABFE882001F0A8FEE7
:10533000002001F0A5FE772001F0A2FE002001F080
:105340009FFE662001F09CFE002001F099FE88205F
:1053500001F096FE002001F093FEAA2001F090FEDD
:10536000002001F08DFEBB2001F08AFE002001F03C
:1053700087FE992001F084FE002001F081FE662066
:1053800001F07EFE002001F07BFE552001F078FE4A
:10539000002001F075FE552001F072FE002001F0A2
:1053A0006FFE442001F06CFE002001F069FE4420F5
:1053B00001F066FE002001F063FE552001F060FE62
:1053C000002001F05DFEE92001F066FEAA2001F058
:1053D00057FE002001F054FE002001F051FE002095
:1053E00001F04EFE002001F057FEAA2001F048FE19
:1053F000CF2001F051FE002001F042FE002001F01C
:105400003FFE002001F03CFE002001F039FE0020AC
:1054100001F036FE002001F033FE002001F030FEE6
:10542000002001F02DFE002001F02AFE002001F0F6
:1054300027FE002001F024FE002001F021FE0020C4
:1054400001F01EFE002001F01BFE002001F018FEFE
:10545000002001F015FE002001F012FEF02001F006
:105460001BFE002001F00CFE502001F009FE002080
:1054700001F006FE002001F003FE002001F000FE16
:10548000F32001F009FE002001F0FAFDF92001F0FF
:1054900003FE062001F0F4FD102001F0F1FD2920AB
:1054A00001F0EEFD002001F0EBFD3A2001F0F4FDEB
:1054B000552001F0E5FD112001F0EEFD6420FEF71E
:1054C00015FD292001F0E8FD352001F0E5FD002063
:1054D00001F0D6FD512001F0DFFDFF2001F0D0FDED
:1054E000532001F0D9FD2C2001F0CAFD552001F018
:1054F000D3FD822001F0C4FDBDE810402C2001F056
:10550000CBBD2DE9F05F4FF470435521184601F0F3
:10551000D9FD4FF20104AA21204601F0D3FD651CFC
:105520005221284601F0CEFDA61C0821304601F08C
:10553000C9FDE71C0121384601F0C4FD0D214FF4DF
:10554000304001F0BFFD0D214BF2010001F0BAFD2A
:105550000D214BF2020001F0B5FD4FF43648342125
:10556000404601F0AFFD34214BF2016001F0AAFD8D
:1055700034214BF2026001F0A5FD4FF431490D21B9
:10558000484601F09FFD4BF2011A0D21504601F0F3
:1055900099FD0D214BF2021001F094FD4FF4374BB1
:1055A0003421584601F08EFD34214BF2017001F098
:1055B00089FD34214BF2027001F084FD00214FF48B
:1055C000324001F07FFD00214BF2012001F07AFD15
:1055D00000214BF2022001F075FD24214FF43840E8
:1055E00001F070FD24214BF6010001F06BFD242138
:1055F0004BF6020001F066FD01214FF43F4001F03F
:1056000061FD0F214FF4334001F05CFD0F214BF29F
:10561000013001F057FD0F214BF2023001F052FD35
:1056200034214FF4394001F04DFD34214BF6011087
:1056300001F048FD34214BF6021001F043FD082132
:105640004FF4354001F03EFD08214BF2015001F0CE
:1056500039FD08214BF2025001F034FD03214FF4D3
:10566000424001F02FFD24214FF43A4001F02AFD81
:1056700024214BF6012001F025FD24214BF60220C8
:1056800001F020FD00214FF43C4001F01BFD78218A
:105690004BF6014001F016FD00214BF6024001F0EF
:1056A00011FD00214FF43D4001F00CFD78214BF637
:1056B000015001F007FD00214BF6025001F002FD00
:1056C00000214FF43E4001F0FDFC64214BF60160E7
:1056D00001F0F8FC00214FF4514001F0F3FC3321BC
:1056E0004DF2011001F0EEFC00214DF2021001F02C
:1056F000E9FC34214DF2031001F0E4FC00214DF2ED
:10570000041001F0DFFC3A214DF2051001F0DAFC43
:1057100000214DF2061001F0D5FC4A214DF2071090
:1057200001F0D0FC00214DF2081001F0CBFC5C210F
:105730004DF2091001F0C6FC00214DF20A1001F0F3
:10574000C1FC81214DF20B1001F0BCFC00214DF297
:105750000C1001F0B7FCA6214DF20D1001F0B2FCC7
:1057600000214DF20E1001F0ADFCE5214DF20F10BD
:1057700001F0A8FC01214DF2101001F0A3FC13214F
:105780004DF2111001F09EFC01214DF2121001F0BA
:1057900099FC54214DF2131001F094FC01214DF2BB
:1057A000141001F08FFC82214DF2151001F08AFCDB
:1057B00001214DF2161001F085FCCA214DF217109F
:1057C00001F080FC02214DF2181001F07BFC002159
:1057D0004DF2191001F076FC02214DF21A1001F081
:1057E00071FC01214DF21B1001F06CFC02214DF205
:1057F0001C1001F067FC34214DF21D1001F062FC19
:1058000002214DF21E1001F05DFC67214DF21F10C8
:1058100001F058FC02214DF2201001F053FC8421CC
:105820004DF2211001F04EFC02214DF2221001F048
:1058300049FCA4214DF2231001F044FC02214DF259
:10584000241001F03FFCB7214DF2251001F03AFC85
:1058500002214DF2261001F035FCCF214DF2271028
:1058600001F030FC02214DF2281001F02BFCDE216A
:105870004DF2291001F026FC02214DF22A1001F010
:1058800021FCF2214DF22B1001F01CFC02214DF203
:105890002C1001F017FCFE214DF22D1001F012FC2E
:1058A00003214DF22E1001F00DFC10214DF22F10AE
:1058B00001F008FC03214DF2301001F003FC33210C
:1058C0004DF2311001F0FEFB03214DF2321001F0D8
:1058D000F9FB6D214DF2331001F0F4FB00214FF480
:1058E000524001F0EFFB33214DF2012001F0EAFBC1
:1058F00000214DF2022001F0E5FB34214DF203209E
:1059000001F0E0FB00214DF2042001F0DBFB3A2125
:105910004DF2052001F0D6FB00214DF2062001F0EA
:10592000D1FB4A214DF2072001F0CCFB00214DF2C2
:10593000082001F0C7FB5C214DF2092001F0C2FBF9
:1059400000214DF20A2001F0BDFB81214DF20B2018
:1059500001F0B8FB00214DF20C2001F0B3FBA621B1
:105960004DF20D2001F0AEFB00214DF20E2001F0B2
:10597000A9FBE5214DF20F2001F0A4FB01214DF21E
:10598000102001F09FFB13214DF2112001F09AFB32
:1059900001214DF2122001F095FB54214DF213200C
:1059A00001F090FB01214DF2142001F08BFB8221CC
:1059B0004DF2152001F086FB01214DF2162001F079
:1059C00081FBCA214DF2172001F07CFB02214DF230
:1059D000182001F077FB00214DF2192001F072FB35
:1059E00002214DF21A2001F06DFB01214DF21B2026
:1059F00001F068FB02214DF21C2001F063FB342111
:105A00004DF21D2001F05EFB02214DF21E2001F03F
:105A100059FB67214DF21F2001F054FB02214DF28A
:105A2000202001F04FFB84214DF2212001F04AFBA0
:105A300002214DF2222001F045FBA4214DF223204A
:105A400001F040FB02214DF2242001F03BFBB72185
:105A50004DF2252001F036FB02214DF2262001F007
:105A600031FBCF214DF2272001F02CFB02214DF21A
:105A7000282001F027FBDE214DF2292001F022FB36
:105A800002214DF22A2001F01DFBF2214DF22B20C4
:105A900001F018FB02214DF22C2001F013FBFE2136
:105AA0004DF22D2001F00EFB03214DF22E2001F0CE
:105AB00009FB10214DF22F2001F004FB03214DF2D0
:105AC000302001F0FFFA33214DF2312001F0FAFAD3
:105AD00003214DF2322001F0F5FA6D214DF2332011
