:020000040800F2
:10000000405A00207D0B0008890600088B06000876
:100010008F060008930600089706000800000000FD
:100020000000000000000000000000009B06000827
:100030009D060008000000009F060008A1060008B9
:10004000970B0008970B0008970B0008970B000808
:10005000970B0008970B0008970B0008970B0008F8
:10006000970B0008970B0008970B0008970B0008E8
:10007000970B0008970B0008970B0008970B0008D8
:10008000970B0008970B0008970B0008970B0008C8
:10009000970B0008970B0008970B0008970B0008B8
:1000A000970B0008970B0008970B0008970B0008A8
:1000B000970B0008970B0008970B0008970B000898
:1000C000970B0008970B0008970B0008970B000888
:1000D000970B0008190B0008970B0008970B0008F6
:1000E000970B0008970B0008970B0008970B000868
:1000F000970B0008970B0008970B0008970B000858
:10010000970B0008970B0008970B0008970B000847
:10011000970B0008970B0008970B0008970B000837
:10012000970B0008970B0008970B0008970B000827
:1001300000F002F800F03FF80AA090E8000C8244BA
:100140008344AAF10107DA4501D100F034F8AFF297
:10015000090EBAE80F0013F0010F18BFFB1A43F0A5
:1001600001031847FC2B00001C2C0000103A24BF90
:1001700078C878C1FAD8520724BF30C830C144BF0C
:1001800004680C607047000000230024002500264E
:10019000103A28BF78C1FBD8520728BF30C148BFEA
:1001A0000B607047642902F08383002070471FB5FD
:1001B0001FBD10B510BD02F088FD1146FFF7F7FF17
:1001C00000F073F902F0A6FD03B4FFF7F2FF03BCE1
:1001D00000F054FC10B502460B460020002100BF81
:1001E00004E0545C0444A0B24C1CA1B29942F8DB78
:1001F00010BD3EB5BD48008800287CD0BC480088B2
:10020000BA490988884277D1B8480088B949088036
:100210000020B6490880B649088001F0ECFA04468F
:10022000B44800884221B4A22346CDE900210290BF
:10023000B2A2B4A1002002F0E9FAAE480288BB499C
:10024000BB4802F050FC0020BA490880B84800784A
:10025000A92803D1B6484078542805D0B54800886D
:1002600040F00100B3490880B148C0780930B04976
:10027000897840EA01209F490988884205D0AD4825
:10028000008840F00200AB4908809A480088401E70
:10029000A749095C97480088801EA54A105C41EA7E
:1002A0000020A549088093480088801E81B210462E
:1002B000FFF790FFA1490880084600889E490988F9
:1002C000884228D001F097FA04469B4800885821BC
:1002D00089A22346CDE90021029088A298A100209E
:1002E00002F094FA01F087FA0446944800885921F4
:1002F00081A2234601E0D6E0CEE0CDE900210290C4
:100300007EA299A1002002F081FA8A48008840F07C
:1003100004008849088087480088A0B101F06BFA82
:100320000446844800885F2173A22346CDE900215A
:10033000029072A295A1002002F068FA08219D485F
:1003400000F0FEFB3EBD7A480079E12806D0E228A5
:100350001AD0E32852D0E42815D189E001F04BFAF5
:100360000446682064A1234664A2CDE9001092A14E
:10037000002002F04BFA00209949088008218D489E
:10038000083000F0DDFB86E06948007A6849C979E9
:1003900040EA01209349088001F02DFA0446914873
:1003A00000886F2154A22346CDE90021029053A278
:1003B0008DA1002002F02AFA89480088401C884953
:1003C000088008460088010A7A4801758448017847
:1003D0007848417506211030FFF7FCFE5749088028
:1003E00008460088010A73488175544801787148AD
:1003F000C1750821103000F0A3FB4CE001F0FBF9BF
:1004000004467A203CA123463CA2CDE9001083A1FA
:10041000002002F0FBF9724800887249098888427E
:1004200021DC6F480088401C6D4908800846008820
:10043000010A604801756A4801785E4841750621E5
:100440001030FFF7C7FE3D49088008460088010AC2
:1004500058488175394801785648C17508211030CF
:1004600000F06EFB03E00821524800F069FB12E047
:1004700001F0C1F904468C201FA123461FA2CDE93B
:1004800000106EA1002002F0C1F90821494818307F
:1004900000F056FB00BF03E01448008814490880B0
:1004A000012000F0BEFA00BF4CE71CB500F07CFA5A
:1004B0004FF4A06000F082FB4FF4612000F0E0FAFE
:1004C00000F0E0F900F004FA01F095F90446A120EB
:1004D00009A1234609A2CDE9001062A1002002F083
:1004E00095F901E0FFF785FEFCE700004C000020D5
:1004F0004E00002000000020727474001B5B333239
:100500006D00000025735B25735D5B25735D5B25C6
:10051000645D20756172745F72785F6C656E203DFA
:100520002025641B5B306D0A0D000000842800202C
:10053000840000200200002026000020240000206B
:1005400025735B25735D5B25735D5B25645D2063AF
:100550006865636B4279746573203D2025781B5B69
:10056000306D0A0D0000000025735B25735D5B256F
:10057000735D5B25645D20636865636B73756D20D7
:100580003D2025781B5B306D0A0D000025735B252F
:10059000735D5B25735D5B25645D206572726F72B0
:1005A0005F636F6465203D2025781B5B306D0A0D0D
:1005B000000000000400002025735B25735D5B25AF
:1005C000735D5B25645D207265717565737420755C
:1005D00070646174652E1B5B306D0A0D00000000B5
:1005E0002A0000202800002025735B25735D5B2511
:1005F000735D5B25645D2062696E2066696C6520B1
:100600007061636B61676573206E756D6265723AC8
:100610002025641B5B306D0A0D00000025735B25EF
:10062000735D5B25735D5B25645D207061636B6149
:100630006765732E1B5B306D0A0D000025735B250B
:10064000735D5B25735D5B25645D2075706461740B
:10065000652066696E69736865642E1B5B306D0A80
:100660000D00000025735B25735D5B25735D5B25C5
:10067000645D2068656C6C6F20776F726C641B5BC7
:10068000306D0A0D00000000704700BFFEE700BF9C
:10069000FEE700BFFEE700BFFEE770477047704708
:1006A000704700000CB50020019000906C48006875
:1006B00040F480306A49086000BF6948006800F46F
:1006C000003000900198401C0190009818B90198E2
:1006D000B0F5A06FF1D16248006800F4003010B1AD
:1006E0000120009001E0002000900098012843D1F3
:1006F0005C48006840F010005A49086008460068ED
:1007000020F0030008600846006840F0020008601E
:100710005348406852494860084640684860084667
:10072000406840F4806048600846406820F47C10CF
:1007300048600846406840F4E81048600846006891
:1007400040F08070086000BF4548006800F000700D
:100750000028F9D04248406820F003004049486032
:100760000846406840F00200486000BF3C484068CE
:1007700000F00C000828F9D10CBD10B5FFF792FF6E
:1007800010BD10B53648006840F0010034490860DB
:1007900008464068344908403149486008460068C6
:1007A000324908402E4908600846006820F480203D
:1007B00008600846406820F4FE0048604FF41F00BF
:1007C0008860FFF7DAFF4FF000602949086010BD2C
:1007D00010B5002100200022214B5B6803F00C01C2
:1007E00021B1042906D0082928D107E0214B224C49
:1007F000236027E01F4B204C236023E0184B5B68ED
:1008000003F47010164B5B6803F48032022303EB91
:10081000904022B9194B4343174C23600DE0104B15
:100820005B6803F4003323B1144B4343124C236041
:1008300003E0104B4343104C236003E00D4B0E4C80
:10084000236000BF00BF064B5B68C3F303130C4C6F
:10085000E15C094B1B68CB40074C236010BD0000D6
:1008600000100240002002400000FFF8FFFFF6FEEB
:1008700008ED00E000127A002C00002000093D0085
:100880003000002008B50121482000F021FD202083
:10089000ADF8000010208DF8030003208DF8020051
:1008A0006946094800F058FA2021074800F001FB8A
:1008B0002020ADF800006946044800F04DFA2021E0
:1008C000024800F0F6FA08BD000C01400018014093
:1008D00008B50121442000F0FBFC1820ADF8000011
:1008E00048208DF8030069462C4800F035FA0120B5
:1008F000ADF8000028208DF803006946284800F074
:100900002BFA08BD10B5044614B101202549087022
:100910002448007858B31021204800F0B0FA50B1B4
:1009200008211E4800F0ABFA28B101211C4800F054
:10093000A6FA01281BD10A2000F073F800201949FB
:1009400008701021154800F09AFA08B9012010BD6E
:100950000821124800F093FA08B90220F7E70121B4
:100960000F4800F08CFA012815D10320EFE7102181
:100970000A4800F084FA01280DD10821074800F048
:100980007EFA012807D10121054800F078FA10B954
:100990000120044908700020D9E700000018014038
:1009A000000801404000002010B56FF0040000F086
:1009B00054F92E4800682E49B0FBF1F02D4908701B
:1009C0000846007800EB4001C1EBC0104FF6FF7104
:1009D00001EAC0002849088010BD0146254A127866
:1009E0004A434FF0E0235A6100229A611A46126985
:1009F00042F001021A6100BF4FF0E022106900F0DE
:100A000001021AB100F48032002AF5D04FF0E02242
:100A1000126922F001024FF0E0231A6100229A616C
:100A200070470146144A12884A434FF0E0235A6146
:100A300000229A611A46126942F001021A6100BF4F
:100A40004FF0E022106900F001021AB100F4803288
:100A5000002AF5D04FF0E022126922F001024FF097
:100A6000E0231A6100229A61704700002C000020E8
:100A700000127A00420000204400002000BF7047AE
:100A800010B586B00446012144F2040000F020FCB9
:100A90004FF40070ADF8140003208DF816001820F4
:100AA0008DF8170005A9314800F056F94FF4806021
:100AB000ADF8140004208DF8170005A92B4800F0AC
:100AC0004BF925208DF8000003208DF801008DF8EA
:100AD000020001208DF80300684600F074F80194CC
:100AE0000020ADF80800ADF80A00ADF80C00ADF834
:100AF00010000C20ADF80E0001A91D4800F08FFC7D
:100B0000012240F225511A4800F021FD0121184828
:100B100000F011FD06B010BD10B540F2255114488B
:100B200000F0FAFD58B1124800F076FDC1B211484C
:100B300002880088401C0F4B18800F48815410BD5C
:100B400070B505460E46002400BF0CE0295D08483C
:100B500000F05EFD00BF4021054800F0C7FD012800
:100B6000F9D1601C84B2B442F0DB70BD00080140D2
:100B7000003801404C0000208428002009488047AC
:100B800009480047FEE7FEE7FEE7FEE7FEE7FEE76F
:100B9000FEE7FEE7FEE7FEE704480549054A064B87
:100BA000704700008307000831010008405400200E
:100BB000405A002040560020405600203149014351
:100BC000314A1160704770B5002100230F22C478AC
:100BD00004B32D4C246804F4E064C4F5E064210AF5
:100BE000C1F10403CA40447804FA03F18478144044
:100BF00021430901254C0678A155047804F01F050E
:100C00000124AC4005786D11AD0005F1E025C5F873
:100C1000004109E0047804F01F050124AC401C4D9C
:100C20000678761145F8264070BD1A4A0A400243FC
:100C3000154B1B1F1A60704739B1134A121D1268F9
:100C40000243114B1B1D1A6006E00F4A121D126869
:100C500082430D4B1B1D1A607047042808D14FF0CA
:100C6000E021096941F004014FF0E022116107E041
:100C70004FF0E021096921F004014FF0E0221161F9
:100C8000704700000000FA050CED00E000E400E011
:100C900080E100E080FFFF1F10B50446CC4884428D
:100CA00008D10121042000F02DFB0021042000F0D8
:100CB00029FB46E0C748844208D10121082000F002
:100CC00021FB0021082000F01DFB3AE0C2488442CD
:100CD00008D10121102000F015FB0021102000F0A8
:100CE00011FB2EE0BD48844208D10121202000F0F4
:100CF00009FB0021202000F005FB22E0B8488442D7
:100D000008D10121402000F0FDFA0021402000F030
:100D1000F9FA16E0B348844208D10121802000F09E
:100D2000F1FA0021802000F0EDFA0AE0AE4884429A
:100D300007D10121801500F0E5FA0021A01500F08F
:100D4000E1FA10BD10B50121084600F0DBFA0021E0
:100D5000012000F0D7FA10BD2DE9F0410246002530
:100D60000026002000230024002791F803C00CF087
:100D70000F0591F803C00CF0100CBCF1000F03D06C
:100D800091F802C04CEA050591F800C0BCF1000FD3
:100D900031D0146800202BE04FF0010C0CFA00F366
:100DA000B1F800C00CEA03069E4220D183004FF048
:100DB0000F0C0CFA03F7BC4305FA03FC4CEA0404DD
:100DC00091F803C0BCF1280F06D14FF0010C0CFACA
:100DD00000FCC2F814C00AE091F803C0BCF1480F4F
:100DE00005D14FF0010C0CFA00FCC2F810C0401CF9
:100DF0000828D1D31460B1F800C0BCF1FF0F34DD76
:100E0000546800202EE000F1080C4FF0010808FAA9
:100E10000CF3B1F800C00CEA03069E4221D1830016
:100E20004FF00F0C0CFA03F7BC4305FA03FC4CEA35
:100E3000040491F803C0BCF1280F05D100F1080C9F
:100E400008FA0CF8C2F8148091F803C0BCF1480FFE
:100E500007D100F1080C4FF0010808FA0CF8C2F8AD
:100E60001080401C0828CED35460BDE8F0814FF6B6
:100E7000FF710180022181700421C1707047024618
:100E8000002093680B400BB1012000E00020704768
:100E90000146886880B2704702460020D3680B4044
:100EA0000BB1012000E0002070470146C86880B205
:100EB000704701617047416170470AB1016100E00C
:100EC00041617047C16070474FF480320A438261CC
:100ED0008161826182698269704702460020434BCA
:100EE00018684FF68073184040EA021008433F4BE1
:100EF000186070473E49C8617047F0B50A46002344
:100F000000240021002500F00046B6F1004F02D178
:100F1000364EF16901E0354E7168C0F3034583B286
:100F200000F44016B6F5401F08D121F070612F4E35
:100F3000766826F070662D4F7E6012E000F4801611
:100F4000B6F5801F06D1032606FA05F4A14341F049
:100F5000706106E0460D360103FA06F6B14341F032
:100F6000706122B1460D360103FA06F6314300F0F6
:100F70000046B6F1004F02D11C4EF16101E01B4E5C
:100F80007160F0BD30B500228B071C0F0F2303FAF0
:100F900004F2164B08338C1053F824309343134C4F
:100FA00008348D1044F8253023468C1053F8243033
:100FB0008C07240F00FA04F423430C4C08348D10E2
:100FC00044F8253030BD0A49DC3108607047000024
:100FD00000080140000C01400010014000140140D5
:100FE00000180140001C01400020014000000140A9
:100FF00000002042DF48006840F00100DD49086041
:1010000008464068DC490840DA49486008460068FC
:10101000DA490840D74908600846006820F4802073
:1010200008600846406820F4FE0048604FF41F0046
:1010300088607047CF49096821F48031CD4A11603A
:101040001146096821F480211160B0F5803F03D07A
:10105000B0F5802F0ED106E0C649096841F4803111
:10106000C44A116007E0C349096841F4A021C14A9C
:10107000116000E000BF00BF704710B501460022BC
:10108000002300204A11012A02D1BA4C236806E04D
:10109000022A02D1B74C236A01E0B64C636A01F020
:1010A0001F02012494401C400CB1012000E00020EC
:1010B00010BD38B5002000900024002500BF31206D
:1010C000FFF7DBFF05460098401C00900098B0F544
:1010D000A06F01D0002DF2D03120FFF7CEFF08B174
:1010E000012400E00024204638BD01460020A14A2A
:1010F000106820F0F80040EAC10010607047A04975
:1011000008607047024600209A4B586820F47C1013
:1011100042EA01031843974B5860704798490866A4
:10112000704701460020934A506820F003000843AE
:10113000506070478F48406800F00C0070470146CF
:1011400000208C4A506820F0F0000843506070473F
:1011500001460020874A506820F4E0600843506050
:10116000704701460020834A506820F4605040EAEE
:10117000C1005060704729B17E4A527A02437D4BCC
:101180005A7204E07B4A527A82437A4B5A72704711
:101190007B49D8310860704701460020754A506885
:1011A00020F440400843506070470021714A2032CB
:1011B0001170704A82F82010012802D004280AD148
:1011C00004E001216B4A2032117005E00521694AD3
:1011D0002032117000E000BF00BF7047694908600D
:1011E00070476449096A0143624A11627047654960
:1011F00044390860704730B50021002200240023E4
:101200005C4D6D6805F00C0121B1042905D0082959
:1012100023D105E05C4D056022E05B4D05601FE0D9
:10122000544D6D6805F47012524D6D6805F48034AC
:10123000022505EB92421CB9544D554305600BE065
:101240004C4D6D6805F400351DB1504D554305609A
:1012500002E04D4D5543056002E04B4D056000BF77
:1012600000BF444D6D6805F0F0010909484D6B5C05
:101270000568DD4045603F4D6D6805F4E061090A91
:10128000434D6B5C4568DD4085603A4D6D6805F403
:101290006051C90A3E4D6B5C4568DD40C560354D07
:1012A0006D6805F44041890B3A4D6B5CC568B5FB30
:1012B000F3F5056130BD29B12E4A526902432D4B29
:1012C0005A6104E02B4A526982432A4B5A617047A3
:1012D00029B1284A92690243264B9A6104E0254AC3
:1012E00092698243234B9A61704729B1214AD2699E
:1012F0000243204BDA6104E01E4AD26982431D4B4F
:10130000DA61704729B11B4AD2680243194BDA608F
:1013100004E0184AD2688243164BDA60704729B15C
:10132000144A12690243134B1A6104E0114A12690C
:101330008243104B1A617047124940390860704768
:101340000F49C86470470B49C87170470948406A23
:1013500040F0807007494862704701460020054A06
:1013600092680A400AB1012000E00020704701495C
:1013700088727047001002400000FFF8FFFFF6FE81
:10138000000042428004424200127A0000093D00FF
:10139000500000206000002010B50446FB48844245
:1013A00009D101218803FFF7ADFF00214FF48040F0
:1013B000FFF7A8FF32E0F648844209D10121480432
:1013C000FFF7ADFF00214FF40030FFF7A8FF25E045
:1013D000F048844209D101218804FFF7A0FF0021D1
:1013E0004FF48020FFF79BFF18E0EB48844209D1BF
:1013F0000121C804FFF793FF00214FF40020FFF7FD
:101400008EFF0BE0E548844208D101210805FFF773
:1014100086FF00214FF48010FFF781FF10BD2DE9FA
:10142000F04786B005460E460024A24600BFA146FE
:101430000027B08900B100BF2F462C8A4CF6FF7000
:101440000440F08804432C82AC894EF6F31004402B
:10145000B08831890843718908430443AC81AC8A60
:101460004FF6FF400440B0890443AC8201A8FFF767
:10147000C2FEC648874202D1DDF810A001E0DDF8C7
:101480000CA0A88900F4004040B10AEBCA0000EBB0
:101490000A1031684900B0FBF1F807E00AEBCA0016
:1014A00000EB0A1031688900B0FBF1F86420B8FB4A
:1014B000F0F004012009642101FB1089A88900F4DF
:1014C000004040B1322000EBC900B0FBF1F000F069
:1014D0000700044308E0322000EB09106421B0FB50
:1014E000F1F000F00F0004432C8106B0BDE8F08756
:1014F0004FF41651016000218180C18001810C21CF
:10150000418100218181704710B502460020108A78
:101510004FF2FF0318400B884C8823438C882343E9
:10152000CC8823431843108210BD002101804180E4
:101530008180C180704721B1828942F4005282814A
:1015400004E082894DF6FF731A4082817047F0B53E
:101550000346002400260025002040F66A17B94201
:1015600000D100BF1846C1F3421401F01F06012745
:1015700007FA06F5012C01D10C3004E0022C01D150
:10158000103000E014301AB107682F43076002E002
:101590000768AF430760F0BD1AB1838A0B438382AB
:1015A00002E0838A8B4383827047028A4FF6F0738E
:1015B0001A400282028A0A430282704782894FF2ED
:1015C000FF731A40828182890A438281704721B168
:1015D000828942F00202828104E082894FF6FD7323
:1015E0001A4082817047028A4FF6DF731A400282E6
:1015F000028A0A430282704721B1028A42F4804281
:10160000028204E0028A4BF6FF731A40028270479E
:10161000C1F308028280704701468888C0F3080041
:101620007047818941F0010181817047028BD2B2FC
:101630000283028B42EA012202837047028B02F48A
:101640007F420283028B0A430283704721B1828A60
:1016500042F02002828204E0828A4FF6DF731A4051
:101660008282704721B1828A42F01002828204E0B5
:10167000828A4FF6EF731A408282704721B1828AC4
:1016800042F00802828204E0828A4FF6F7731A4021
:101690008282704721B1828942F40042828103E054
:1016A0008289C2F30E028281704721B1828A42F49C
:1016B0000062828204E0828A4FF2FF731A408282C3
:1016C0007047828A4FF6FB731A408282828A0A43ED
:1016D0008282704721B1828A42F00202828204E053
:1016E000828A4FF6FD731A408282704702460020BC
:1016F000B1F5007F00D100BF13880B400BB1012072
:1017000000E00020704701F40072B2F5007F00D1C4
:1017100000BFCA430280704770B502460024002310
:101720000025002040F66A16B14200D100BFC1F387
:10173000421501F01F03012606FA03F3012D02D121
:101740009689334006E0022D02D1168A334001E02B
:10175000968A33400C12012606FA04F416883440A7
:1017600013B10CB1012000E0002070BD10B50022C3
:10177000002340F66A14A14200D100BF0A120124DE
:101780009440A3B2DC43048010BD00000038014047
:101790000044004000480040004C00400050004021
:1017A0002DE9F84306460F4690461C463B46324616
:1017B0001AA10020009401F029F8002506E018F88D
:1017C00005201DA1002001F021F86D1CA542F6D3D3
:1017D0001BA1002001F01AF8BDE8F88370B504469B
:1017E00000F00DFB30B100F003FB05460CB12846BC
:1017F000A04700BF70BD70B5124804686420B4FBF8
:10180000F0F100FB1145B4FBF0F62B4632460EA179
:10181000104801F011F80F4870BD00000A5B2573F5
:101820005D2025732C206C656E6774683A202564F2
:101830002062797465730A00253032582000000058
:101840000A0A000064000020253036642E2530325C
:10185000640000006800002010B5F64C01202061F3
:101860006061F5A0A061F749E1614FF44071216228
:101870000021A1626162E162EFA02063F24961632D
:101880001021A16300212164E1636164EFA1E01DE7
:1018900001F0E6F8EEA1204601F0E2F82020A07168
:1018A00010BD2DE9F0470446894617464FF0000A5F
:1018B000E56800BFD4F81080A84503D9A8EB05005F
:1018C000461E04E0A5EB0800401CA1680E1AA068A3
:1018D000401BB04201D9304601E0A068401B0646DB
:1018E000BE4201D2304600E03846064661684819DB
:1018F0003246494601F0F7F8B244B144BF1B3544C3
:10190000A068A84200D10025E560002FD2D1504642
:10191000BDE8F0872DE9F047044689461546E6689C
:10192000A068871BAF4208D9616888192A464946D2
:1019300001F0D9F87019E06010E0B84661688819C4
:101940004246494601F0CFF8A5EB070809EB07012D
:101950004246606801F0C7F8C4F80C80BDE8F08723
:1019600038B505460C46FF208DF80000BA48005DEA
:101970008DF80100022269462846FFF792FF38BD24
:1019800010B501460A69CB689A4204D88C68641E77
:10199000E41AA01801E0D41A601E10BD2DE9F74F1B
:1019A0008346174600BFA348007808B9FFF754FFE5
:1019B00000BF0BEB4B019F48303000EBC106DDF858
:1019C00004903569D6F80CA04FF00008554515D99C
:1019D000B068441BBC4201D2204600E038460446B1
:1019E000706841192246484601F07DF8A044A144A0
:1019F0003F1B2544B068A84200D10025AAEB05048E
:101A0000BC4201D2204600E0384604464CB1706822
:101A100041192246484601F066F8A044A1443F1B04
:101A20002544B8F1000F00D035614046BDE8FE8F77
:101A30002DE9F04104460D461646EFF3118080462D
:101A4000202080F3118800BF00BF3246294620467F
:101A5000FFF7A4FF074608F0FF0080F3118800BFDE
:101A600000BF3846BDE8F0812DE9F04707468846BB
:101A70001646C14607EB47016E48183000EBC1041B
:101A8000D4E90301884202D1A068451E0EE0D4E9E2
:101A90000301884204D22069E168401A451E05E02E
:101AA0002069E168401A401EA1684518AE420CD971
:101AB0002069711B0844206103E02069A168401A75
:101AC00020612069A1688842F7D2D4E90201451A51
:101AD00000BFB5420AD9E2686168881832464946B3
:101AE00001F001F8E0683044E0600EE0E26861680F
:101AF00088182A46494600F0F6FFA9440020E06015
:101B0000761BA068451E002EE3D100BFBDE8F0871C
:101B10002DE9F84F82468B461646CDF800B00AEB09
:101B20004A014448183000EBC104D4F81090E5682D
:101B3000A94533D8A068401E471BB7420AD3616845
:101B400048193246009900F0CEFFA819E060012044
:101B5000BDE8F88F4F44B7422FD3A068A0EB05082B
:101B6000B04508D9616848193246009900F0BBFFBA
:101B7000A819E06010E0616848194246009900F039
:101B8000B2FFA6EB0802009B03EB0801606800F0BF
:101B9000AAFFA6EB0800E0600120D9E7A9EB050049
:101BA000471EB74209D3616848193246009900F0D0
:101BB0009AFFA819E0600120CAE70020C8E72DE9D4
:101BC000F047074688461646C24607EB47011948C4
:101BD000183000EBC109D9F8140020B1012811D048
:101BE00002283BD11EE04846FFF7CAFE0546B54233
:101BF00001D2002405E03446324651464846FFF7FC
:101C000089FE2DE04846FFF7BBFE0546B54201D2EE
:101C1000284600E030460446224651464846FFF733
:101C200079FE1DE0324651464846FFF73AFE04462B
:101C300016E00000845000205465726D696E616C7E
:101C400000000000CC500020CC530020525454001F
:101C5000534547474552000072000020002400BF52
:101C600000BF2046BDE8F0872DE9F04104460D464F
:101C7000164600BFFB48007808B9FFF7EDFD00BF2E
:101C8000EFF311800746202080F3118800BF00BFCA
:101C9000324629462046FFF792FF8046F8B280F38D
:101CA000118800BF00BF4046BDE8F08170B5054611
:101CB0000C46204600F0F8FE0646324621462846ED
:101CC000FFF7D2FF70BD70B503460C4603EB430629
:101CD000E44D183505EBC601CD686A1C8D68954248
:101CE00000D100220D69954205D0CE684D68AC55F3
:101CF000CA60012000E0002070BD2DE9F0410746D8
:101D0000884600BFD748007808B9FFF7A5FD00BF97
:101D1000EFF311810846202181F3118800BF00BF35
:101D200007EB4702CF49183101EBC204E1684D1CB3
:101D3000A168A94200D100252169A94206D0E26824
:101D4000616801F80280E560012600E00026C1B26A
:101D500081F3118800BF00BF3046BDE8F0812DE956
:101D6000F0410746884600BFBE48007808B9FFF733
:101D700073FD00BFEFF311810846202181F3118824
:101D800000BF00BF07EB4702B649183101EBC204A0
:101D9000E1684D1CA168A94200D1002561690229B2
:101DA00003D100BF2169A942FCD02169A94206D014
:101DB000E268616801F80280E560012600E0002623
:101DC000C1B281F3118800BF00BF3046BDE8F08189
:101DD00038B5012269460020FFF72AFE0446012C8F
:101DE00002D19DF8004001E04FF0FF34204638BD9D
:101DF00010B500BFFFF7ECFF0028FBDB10BD70B58E
:101E000000BF9848007808B9FFF726FD00BF954845
:101E1000056CC06BA84201D0012400E000242046DC
:101E200070BD10B5014601EB41048E48303000EB27
:101E3000C402D3681069181A10BD10B5014601EB31
:101E400041048848183000EBC4021369D068C01AF6
:101E500010BD2DE9F04105460E461746984600BFD5
:101E60008048007808B9FFF7F7FC00BFEFF3118155
:101E70000846202181F3118800BF00BF002400BF65
:101E800004EB44027749303101EBC201496801B9E2
:101E900004E0641C73494969A142F1DC00BF714947
:101EA0004969A14229DD04EB44026E49303141F811
:101EB000325004EB440201EBC2014E6004EB4402D9
:101EC0006849303101EBC2018F60002204EB44030A
:101ED0006449303101EBC3010A6104EB44036149F9
:101EE000303101EBC301CA6004EB44025D4930317B
:101EF00001EBC201C1F8148001E04FF0FF34C1B220
:101F000081F3118800BF00BF2046BDE8F0812DE9B4
:101F1000F04105460E461746984600BF51480078E6
:101F200008B9FFF799FC00BFEFF3118108462021A3
:101F300081F3118800BF00BF002400BF04EB4402FE
:101F40004849183101EBC201496801B904E0641C39
:101F500044490969A142F1DC00BF42490969A14233
:101F600029DD04EB44023F49183141F8325004EBBB
:101F7000440201EBC2014E6004EB440239491831BE
:101F800001EBC2018F60002204EB44033549183194
:101F900001EBC3010A6104EB44033249183101EB40
:101FA000C301CA6004EB44022E49183101EBC2019F
:101FB000C1F8148001E04FF0FF34C1B281F3118801
:101FC00000BF00BF2046BDE8F0812DE9F047044680
:101FD0000E4617469846DDF8209000BF214800784D
:101FE00008B9FFF739FC00BF1E480069A0423BD981
:101FF000EFF311810846202181F3118800BF00BF53
:102000000CB304EB44021749183141F8326004EB79
:10201000440201EBC2014F6004EB44021149183144
:1020200001EBC201C1F80880002204EB44030D4912
:10203000183101EBC3010A6104EB4403094918316B
:1020400001EBC301CA6004EB44020649183101EBFD
:10205000C201C1F81490C1B281F3118800BF00BF62
:10206000002503E0845000204FF0FF352846BDE8EE
:10207000F0872DE9F04704460E4617469846DDF8EE
:10208000209000BFD648007808B9FFF7E5FB00BFF5
:10209000D3484069A04239D9EFF311810846202185
:1020A00081F3118800BF00BF0CB304EB4402CC499C
:1020B000303141F8326004EB440201EBC2014F6061
:1020C00004EB4402C649303101EBC201C1F808807B
:1020D000002204EB4403C249303101EBC3010A6121
:1020E00004EB4403BE49303101EBC301CA6004EB89
:1020F0004402BB49303101EBC201C1F81490C1B2B6
:1021000081F3118800BF00BF002501E04FF0FF35CB
:102110002846BDE8F08770B504460E4600BFB048BB
:10212000007808B9FFF798FB00BFAD480069A042EE
:1021300014D9EFF311810846202181F3118800BFE3
:1021400000BF04EB4402A649183141F83260C1B225
:1021500081F3118800BF00BF002501E04FF0FF357B
:10216000284670BD70B504460E4600BF9C480078F6
:1021700008B9FFF771FB00BF99484069A04214D924
:10218000EFF311810846202181F3118800BF00BFC1
:1021900004EB44029249303141F83260C1B281F31C
:1021A000118800BF00BF002501E04FF0FF35284631
:1021B00070BD70B504460E4600BF8948007808B966
:1021C000FFF74AFB00BF86480069A04215D9EFF32C
:1021D00011810846202181F3118800BF00BF04EB64
:1021E00044027F49183101EBC2014E61C1B281F353
:1021F000118800BF00BF002501E04FF0FF352846E1
:1022000070BD70B504460E4600BF7548007808B929
:10221000FFF722FB00BF72484069A04215D9EFF3D7
:1022200011810846202181F3118800BF00BF04EB13
:1022300044026B49303101EBC2014E61C1B281F3FE
:10224000118800BF00BF002501E04FF0FF35284690
:1022500070BD10B5FFF700FB10BD2DE9F843044633
:1022600000BF5F48007808B9FFF7F6FA00BF002703
:10227000FF208DF80000102C31DA5A48005D8DF8EF
:102280000100574D1835EFF311808046202080F370
:10229000118800BF00BF287D00F00300022807D18D
:1022A00051480470022269462846FFF7FAFA0FE007
:1022B0002846FFF765FB0646022E07D34A480470FE
:1022C000022269462846FFF725FB01E04FF0FF3761
:1022D00008F0FF0080F3118800BF00BF01E04FF05D
:1022E000FF373846BDE8F8832DE9F04707468946B1
:1022F00000BF3B48007808B9FFF7AEFA00BF102FC7
:1023000068DADFF8DC8008F11808484600F0CCFBFA
:102310000646EFF311808246202080F3118800BF2B
:1023200000BF4046FFF72CFB054698F8140000F06C
:10233000030020B1012817D0022840D12FE0301D22
:10234000854201D200240EE039464046FFF708FBE3
:10235000324649464046FFF7A4FA0446224801782F
:102360004046FFF7FDFA2DE0042D02D24FF0FF3476
:1023700014E039464046FFF7F3FA281FB04201D96E
:10238000304600E0281F024649464046FFF789FADA
:102390000446154801784046FFF7E2FA12E0394654
:1023A0004046FFF7DDFA324649464046FFF779FAE4
:1023B00004460D4801784046FFF7D2FA02E04FF09C
:1023C000FF3400BF00BF0AF0FF0080F3118800BF98
:1023D00000BF01E04FF0FF342046BDE8F087000069
:1023E00084500020720000208200002070B5044656
:1023F0000E46A568681C6168814206D32068465570
:10240000681CA060E068401CE060D4E901108842CC
:102410000DD1A26821682069FFF726FCA1688842D7
:1024200003D04FF0FF30E06001E00020A06070BDFD
:102430002DE9FC5F8046894615461E460C9CCDF86A
:1024400004900127BB4605E00198B0FBF5F0019030
:102450000BF1010B0198A842F6D25E4500D9B346B4
:102460000D9800F00100D0B9CCB10D9800F0020039
:10247000022803D116B93020009001E020200090FE
:1024800009E0641E40460099FFF7B0FFD8F80C0041
:10249000002800DA02E00CB1A345F2D300BFD8F85F
:1024A0000C00002835DB09E0012E01D9761E04E07E
:1024B000B9FBF7FAAA4500D201E06F43F4E700BF89
:1024C00000BFB9FBF7FA0AFB1799D94810F80A10B0
:1024D0004046FFF78BFFD8F80C00002800DA03E035
:1024E000B7FBF5F7002FECD100BF0D9800F001000D
:1024F00078B174B109E0641E20214046FFF776FFF1
:10250000D8F80C00002800DA02E00CB1A345F2D3A1
:1025100000BFBDE8FC9F2DE9FC5F06460F469246D2
:102520009846DDE90C45002F01DA784200E0384694
:1025300083464FF0010903E09BFBFAFB09F1010917
:10254000D345F9DAC84500D9C14634B1002F03DBC1
:1025500005F00400042800D1641E05F0020010B14B
:10256000B8F1000F11D005F0010070B96CB108E0AE
:10257000641E20213046FFF739FFF068002800DA9A
:1025800002E00CB1A145F3D300BFF068002836DBB0
:10259000002F05DA7F422D213046FFF727FF07E0A5
:1025A00005F00400042803D12B213046FFF71EFF5D
:1025B000F068002823DB05F00200022814D105F0A2
:1025C000010088B9B8F1000F0ED16CB108E0641EAB
:1025D00030213046FFF70AFFF068002800DA02E0F9
:1025E0000CB1A145F3D300BFF068002807DB4346D8
:1025F000524639463046CDE90045FFF719FFBDE8A0
:10260000FC9F2DE9F04F99B082460D46144603A871
:1026100014904020159000201690CDF860A01790DF
:1026200000BF2E786D1C06B9DDE0252E79D100277C
:102630004FF0010900BF2E78232E12D02B2E0CD084
:102640002D2E02D0302E10D103E047F001076D1C73
:102650000EE047F002076D1C0AE047F004076D1C0E
:1026600006E047F008076D1C02E04FF0000900BFCC
:1026700000BFB9F1000FDED14FF0000800BF2E7887
:10268000302E01DB392E00DD07E06D1CA6F1300095
:1026900008EB880100EB4108F1E700BF0020139030
:1026A0002E782E2E12D16D1C00BF2E78302E01DB1D
:1026B000392E00DD09E06D1CA6F13000139901EB05
:1026C000810100EB41001390EFE700BF2E7800BFBF
:1026D0006C2E01D0682E02D16D1C2E7800E000E037
:1026E000F6E700BF702E5DD008DC252E6AD0582E8C
:1026F00035D0632E09D0642E69D113E0732E3CD0FF
:10270000752E1DD0782E62D128E02168081D20602A
:10271000D1F8009009F0FF0B594614A8FFF766FEA8
:1027200056E058E02168081D2060D1F80090CDE9FE
:1027300000870A22494614A8139BFFF7ECFE47E0E6
:102740002168081D2060D1F80090CDE900870A2299
:10275000494614A8139BFFF76BFE39E000BF2168C0
:10276000081D2060D1F80090CDE90087102249466D
:1027700014A8139BFFF75CFE2AE02168081D206067
:10278000D1F800B000BF9BF800600BF1010B06B957
:1027900006E0314614A8FFF729FE17980028F2DA60
:1027A00000BF15E02168081D2060D1F800900020CE
:1027B00008210B461022CDE90010494614A8FFF766
:1027C00037FE05E0252114A8FFF710FE00E000BF4A
:1027D00000BF6D1C03E0314614A8FFF707FE1798F1
:1027E0000028BFF61EAF00BF179800280ADD169814
:1027F00020B103A95046169AFFF736FADDE9161004
:1028000008441790179819B0BDE8F08F0FB438B589
:10281000044606A800906A4620460599FFF7F1FE97
:10282000054600200090284638BC5DF814FB0000E7
:102830003E2D0008704700000FB41CB5074B06AAD8
:102840007B4469460090059800F0F5F90020694640
:1028500000F004FA1CBC5DF814FB00001904000031
:1028600070B5044685690068C10601D5302600E0D0
:102870002026C00707D070BDD4E90121304690471B
:10288000206A401C20626D1EF6D570BD70B50446EE
:1028900085690078C00707D170BDD4E901212020E7
:1028A0009047206A401C20626D1EF6D570BD000066
:1028B0002DE9F0410646002410687529314616A519
:1028C00010D0AFF30080002802DA404213A507E0E1
:1028D00031688A0701D512A502E0490704D511A580
:1028E000012401E0AFF3008000210A2206F1240751
:1028F00009E0B0FBF2FCB0FBF2F302FB1C0030304D
:1029000078541846491C0028F3D123462A463046FD
:10291000BDE8F04100F030B9000000002D000000DB
:102920002B000000200000002DE9F05F89460446DE
:102930004FF0000ADFF824B1FB44C0F820A0204685
:10294000E168884700287DD0252806D0D4E90121F8
:102950009047206A401C2062F1E700255F46204630
:10296000E16888472028064607DB312E05D2B819D2
:1029700010F8200C08B10543F1E7A80701D525F0B0
:102980000405C4F81CA00027C4F818A02A2E09D0FA
:10299000304600F0CDF938B304EB8708303EC8F874
:1029A000186019E059F8041B204604EB8702916176
:1029B000E1688847012F064618D1E069002820DA2F
:1029C00025F020051DE0D8F8180000EB800006EB8C
:1029D00040003038C8F818002046E16888470646AD
:1029E00000F0A6F90028EED1012F0AD02E2E08D132
:1029F0002046E16888477F1C0646022F45F02005E7
:102A0000C4DBA069002803DA404245F00105A0615B
:102A1000E80701D025F01005A6B1A6F1410019285C
:102A200002D8203645F400654A46314620462560E6
:102A30004D46FDF7B7FB60B1012807D0ED1D25F02D
:102A4000070000E007E000F1080978E705F1040954
:102A500075E730467AE7206ABDE8F09F120400006F
:102A600040EA0103024630B59B0710D14FF0013414
:102A700000E008C208C91D1B9D4315EAC41FF8D019
:102A800013F0FF0102F8011B0DD01B0AF8E711F843
:102A9000013B002B02F8013B05D011F8013B002B54
:102AA00002F8013BF3D130BD10B5431C02E010F831
:102AB000011B71B18107FAD14FF0013202C88C1AA3
:102AC0008C4314EAC211F9D0C01A0A0603D0C01E02
:102AD00010BDC01A10BD0A0401D0801E10BD09022D
:102AE000FCD0401E10BD032A40F2308010F0030CD1
:102AF00000F0158011F8013BBCF1020F624498BF51
:102B000011F801CB00F8013B38BF11F8013BA2F1ED
:102B1000040298BF00F801CB38BF00F8013B11F068
:102B2000030300F0A080083AC0F0088051F8043B8D
:102B3000083A51F804CBA0E80810F5E7121D5CBF75
:102B400051F8043B40F8043BAFF30080D20724BFA8
:102B500011F8013B11F801CB48BF11F8012B24BF3C
:102B600000F8013B00F801CB48BF00F8012B70478B
:102B700070477047704770472DE9F0470D469946FA
:102B80009246044600F124080168880604D5E069ED
:102B900021F01001216000E00120A84201DD471B67
:102BA00000E00027A1697A1902EB0900081AA06168
:102BB0002078C00602D42046FFF752FE002608E027
:102BC000D4E901211AF806009047206A401C761CBF
:102BD00020624E45F4DB2078C0060AD52046FFF778
:102BE0003FFE06E0D4E9012130209047206A401CD6
:102BF0002062381EA7F10107F4DC07E0D4E90121C7
:102C000018F805009047206A401C2062281EA5F194
:102C10000105F3DC2046FFF739FE2078000602D5D7
:102C20000220BDE8F0870120FBE7000001694A1C93
:102C300002610878704700B58FB0CDE901310021FD
:102C4000059105497944CDE9031011466846FFF71F
:102C50006BFE0FB000BD0000E5FFFFFF0A6802F841
:102C6000010B0A60704710B5203AC0F00B80B1E844
:102C70001850203AA0E81850B1E81850A0E81850B1
:102C8000BFF4F5AF5FEA027C24BFB1E81850A0E8BA
:102C9000185044BF18C918C0BDE810405FEA827CD4
:102CA00024BF51F8043B40F8043B08BF7047D207EB
:102CB00028BF31F8023B48BF11F8012B28BF20F88C
:102CC000023B48BF00F8012B7047754600F02CF816
:102CD000AE4605006946534620F00700854618B009
:102CE00020B5FDF759FFBDE820404FF000064FF03A
:102CF00000074FF000084FF0000B21F00701AC4631
:102D0000ACE8C009ACE8C009ACE8C009ACE8C0094F
:102D10008D46704710B50446AFF300802046BDE8ED
:102D20001040FDF751BA000000487047DC53002006
:102D300030380A2801D20120704700207047303116
:102D4000323334353637383941424344454604003E
:102D50000008000000000000000200010000100058
:102D6000802D000800000020840000006C01000895
:102D7000042E000884000020BC59000088010008CF
:102D800000000000AA55020000000101AA5502013E
:102D900000000102AA55020200000103AA55020325
:102DA00000000104000000000000000000A24A042E
:102DB00000000000000000000102030406070809EB
:102DC0000100000000000000000000000000000002
:102DD00000000000010203040102030406070809C1
:102DE00002040608000000003030303030302E3051
:102DF000300030313233343536373839414243448C
:042E00004546000043
:0400000508000131BD
:00000001FF
